:020000040800F2
:1000000048390020BD370008C1040008C3040008B7
:10001000C7040008CB040008CF040008000000005B
:100020000000000000000000000000004501000882
:10003000D50400080000000079010008635C000896
:10004000D7370008D7370008D7370008D737000858
:10005000D7370008D7370008D7370008D737000848
:10006000D7370008D7370008D7370008D737000838
:10007000D7370008D7370008D7370008D737000828
:10008000D7370008D7370008D7370008D737000818
:10009000D7370008D7370008D7370008D737000808
:1000A000D7370008D7370008D7370008D7370008F8
:1000B000D737000889380008D7370008C74100083B
:1000C000DB420008D7370008D7370008D7370008C9
:1000D000D737000809600008D73700087F0B0008F1
:1000E000D7370008D7370008D7370008D7370008B8
:1000F000D7370008D7370008D7370008D7370008A8
:10010000D7370008D7370008D7370008D737000897
:10011000D7370008D7370008ED380008D737000870
:10012000D7370008D7370008D7370008D737000877
:10013000DFF80CD007F086FB0048004729030008D1
:10014000483900201A4B19680868B0E8F00F80F3AE
:1001500009884FF0000080F311884EF00D0E7047B3
:100160000000000003480068006880F3088862B659
:1001700000DF00BF08ED00E0EFF309800C4B1A68C8
:1001800020E9F00F106008B54FF0BF0080F3118830
:1001900005F07EF84FF0000080F31188BDE80840BC
:1001A00019680868B0E8F00F80F30988704700BF4D
:1001B000D400002001B44FF0BF0080F3118801BCCF
:1001C000704701B44FF0000080F3118801BC704704
:1001D00008B501210D2002F07BF90121A64801F0AC
:1001E0006AFD4FF4C040ADF8000010208DF8030008
:1001F00003208DF802006946A04801F08BFC4FF403
:10020000C0419E4801F035FD08BD10B545F255507E
:1002100001F0D0FF032001F0D0FF40F6A56001F00F
:10022000CFFF01F0D0FF01F0D3FF10BD00B587B0C4
:100230000020029001900121914801F050FE02201F
:10024000ADF810008F480390E820ADF8140003A922
:100250008B4801F0C6FD0121894801F01FFF0121F3
:10026000874801F00BFF4FF40011854801F05EFF55
:100270008549834801F077FF00BF83493E318048BC
:1002800001F054FF0028F8D07D4801F09EFE029056
:1002900001217B4801F0D8FE00BF7B493E31784800
:1002A00001F044FF0028F8D0754801F08EFE01905F
:1002B00000BF1021724801F017FF0028F9D07249E1
:1002C0000E316F4801F04FFF07B000BD4FF4E13031
:1002D00005F0F2FD05F055FF00BF6C484088401C5A
:1002E0006A4948806A48007850B169480078401EE1
:1002F0006749087008460078012801D106F0E2F845
:1003000064480078002809DD62480078401E614991
:1003100008700846007808B905F06EFE01F053FF3A
:10032000052005F08EFDD8E71FB54FF4A06001F061
:100330006DF8482005F036FD02205749087041F657
:100340001F41052003F018FB03F0C2FEFFF75DFF1D
:1003500000F002FC002000900190029003464FF450
:100360001D724EA10390AFF29B0004F023FD042008
:1003700004F094FC05F0A6F8002004B010BD00BF06
:100380004848007871280BD10121474801F06FFCE3
:100390000221464801F06DFC0721384801F067FC56
:1003A0004048407803280BD104213F4801F061FC0C
:1003B00001213E4801F05BFC0721304801F059FC67
:1003C000142005F03EFD01F0FEFED9E704F0FEF931
:1003D00007F094F806F08CFB00BF2C48008D401C01
:1003E0002A49088506F09AFB322005F02AFD01F023
:1003F000EAFE04F005FA322005F023FD01F0E3FEE9
:1004000007F0A9F8322005F01CFD01F0DCFEE4E75E
:1004100003F05EFE00BF0821244801F028FC4FF4E1
:100420004C71224801F025FC4FF4E071204801F0A6
:1004300020FC03F045FE322005F003FDEBE700BF92
:10044000002405E009201B4921F81400601CC4B2F7
:10045000194800788442F5DB03F05DFB00BF1420EF
:1004600005F0EFFC03F08DFC14480078074948873D
:1004700001F0A9FEF3E7000000043000000801408D
:1004800000540040A086010002000010A8300020A7
:10049000390100203701002000000020434F4D4D5E
:1004A000000000007803002000180140000C01400B
:1004B00000100140140200204C000020AE0000207B
:1004C000704700BFFEE700BFFEE700BFFEE700BFCA
:1004D000FEE7704770477047704700000CB500207A
:1004E000019000906C48006840F480306A490860D0
:1004F00000BF6948006800F4003000900198401C7B
:100500000190009818B90198B0F5A06FF1D1624838
:10051000006800F4003010B10120009001E00020DC
:1005200000900098012843D15C48006840F010001A
:100530005A4908600846006820F003000860084631
:10054000006840F002000860534840685249486023
:100550000846406848600846406840F4806048604B
:100560000846406820F47C1048600846406840F423
:10057000E81048600846006840F08070086000BFDE
:100580004548006800F000700028F9D042484068F3
:1005900020F00300404948600846406840F00200EF
:1005A000486000BF3C48406800F00C000828F9D1C2
:1005B0000CBD10B5FFF792FF10BD10B536480068AE
:1005C00040F001003449086008464068344908405A
:1005D0003149486008460068324908402E490860A1
:1005E0000846006820F4802008600846406820F42F
:1005F000FE0048604FF41F008860FFF7DAFF4FF0FD
:1006000000602949086010BD10B5002100200022BB
:10061000214B5B6803F00C0121B1042906D00829A5
:1006200028D107E0214B224C236027E01F4B204CB0
:10063000236023E0184B5B6803F47010164B5B6873
:1006400003F48032022303EB904022B9194B434359
:10065000174C23600DE0104B5B6803F4003323B1AB
:10066000144B4343124C236003E0104B4343104CA4
:10067000236003E00D4B0E4C236000BF00BF064B10
:100680005B68C3F303130C4CE15C094B1B68CB4064
:10069000074C236010BD0000001002400020024003
:1006A0000000FFF8FFFFF6FE08ED00E000127A0000
:1006B0000400002000093D000800002030B500F0D3
:1006C0000101C0F34002C0F38003C0F3C00430BD99
:1006D0002DE9F04F85B000F00104C0F34005C0F3F0
:1006E0008006C0F3C00701F0010CC1F34008C1F35C
:1006F000800902F0010AC2F3400BC2F3800ECDF86C
:1007000010E003F0010ECDF80CE0C3F3400ECDF87D
:1007100008E0C3F3800ECDF804E0C3F3C00ECDF8BB
:1007200000E005B0BDE8F08F00B587B00121880476
:1007300001F0DBFE0121082001F0CAFE4FF48060C9
:10074000ADF8040003208DF8060018208DF807008E
:1007500001A9F74801F0DEF94FF40060ADF804009C
:1007600004208DF8070001A9F14801F0D3F944F6FF
:100770001E3003900020ADF81000ADF812004FF4C9
:10078000C060ADF814000020ADF818000C20ADF8E2
:10079000160003A9E74802F050FE012240F225515D
:1007A000E44802F0E2FE27208DF8080000208DF8D2
:1007B00009008DF80A0001208DF80B0002A800F056
:1007C0002AFE0121DB4802F0C4FE07B000BD08B5D7
:1007D00001211C2001F07CFE4AF23870ADF80000C7
:1007E00003208DF8020010208DF803006946D048E0
:1007F00001F090F940F6C570ADF8000003208DF8C7
:10080000020010208DF803006946CB4801F082F900
:1008100042F2E000ADF8000003208DF80200102045
:100820008DF803006946C54801F074F90821C048F5
:1008300001F01FFA48F23071BD4801F018FA4FF488
:100840000051BB4801F013FA40F2C531BA4801F03B
:100850000EFA4FF44061B84801F00BFA2021B74876
:1008600001F005FA4FF40051B44801F002FA08BD56
:1008700010B50446012C03D00821AD4801F0F9F968
:10088000022C03D01021AA4801F0F3F9032C03D065
:100890002021A74801F0EDF9042C03D04021A648FF
:1008A00001F0E7F9052C03D08021A34801F0E1F91C
:1008B000062C04D04FF480719D4801F0DAF9072C22
:1008C00004D04FF400719A4801F0D3F9082C04D0F9
:1008D0004FF48061964801F0CCF99948007A401CA9
:1008E00097490872092C31D2DFE804F030050A0F6D
:1008F00014191E242A0008218D4801F0B8F92AE0B5
:1009000010218B4801F0B3F925E02021884801F03F
:10091000AEF920E04021884801F0A9F91BE08021D0
:10092000854801F0A4F916E04FF48071804801F089
:100930009EF910E04FF400717D4801F098F90AE04B
:100940004FF480617A4801F092F904E00821784878
:1009500001F08DF900BF00BF10BD2DE9F05F044626
:100960000D4616461F46DDE90CABDDE90A89012C70
:1009700004D108216E4801F07AF903E008216C489F
:1009800001F077F9012D04D11021694801F06FF9C8
:1009900003E01021664801F06CF9012E04D12021FA
:1009A000634801F064F903E02021614801F061F936
:1009B000012F04D14021604801F059F903E04021A2
:1009C0005D4801F056F9B8F1010F04D180215A4871
:1009D00001F04DF903E08021574801F04AF9B9F1DF
:1009E000010F05D14FF48071514801F040F904E046
:1009F0004FF480714E4801F03CF9BAF1010F05D176
:100A00004FF400714A4801F032F904E04FF40071EC
:100A1000474801F02EF9BBF1010F05D14FF4806179
:100A2000434801F024F904E04FF48061404801F0AC
:100A300020F9BDE8F09F0146A1F130000A281AD242
:100A4000DFE800F00507090B0D0F11131517002043
:100A500070470120FCE70220FAE70320F8E70420B2
:100A6000F6E70520F4E70620F2E70720F0E7082084
:100A7000EEE70920ECE7FF20EAE72DE9F041044624
:100A80000D4616461F46012C04D141022A4801F0AA
:100A9000F0F804E04FF40071274801F0E8F8012D68
:100AA00004D1A902244801F0E4F804E04FF4806185
:100AB000214801F0DCF8012E04D1F1021E4801F0BA
:100AC000D8F804E04FF400611B4801F0D0F8012F82
:100AD00004D1F903164801F0CCF804E04FF40041CA
:100AE000134801F0C4F8BDE8F081164A11680A0EF7
:100AF00002700A0C42700A0A8270C170124A12789F
:100B00000271124A12784271114A12788271104AA7
:100B10001278521C0E4B1A700A0C0E4BA3F8B0211F
:100B2000A3F8B211704702E0642004F03FFBFBE73A
:100B3000000C014000480040001001400008014046
:100B4000B00200201C000020D8010020A8000020D6
:100B500025000020A83000201FB5FFF7E5FDFFF7B6
:100B600036FE00200323CDE90030029003468022A8
:100B7000F9A10390AFF2510004F01CF91FBD10B5AC
:100B800040F22551F94802F0D5FD00287ED0F74803
:100B900002F050FDC4B204F07F04F5490878411C0E
:100BA000F34A1170F3490C54104600780E286EDB9E
:100BB00008460078F0490870EE4840784870ED48E3
:100BC00080788870EB48C078C870EA48007908716E
:100BD000E84840794871E74880798871E548C079EC
:100BE000C871E448007A0872E248407A4872E148E5
:100BF000807A8872DF48C07AC872DE48007B08734A
:100C0000DC48407B48730020DC490860DA494878BA
:100C1000FFF711FF40F271214843D849096801EB01
:100C20000010D6490860D4498878FFF704FF00EB2C
:100C30004001C1EBC010D149096801EBC000CF49A8
:100C40000860CD49C878FFF7F6FE00EBC00101EB64
:100C50000010CA49096801EB8000C8490860C6490C
:100C60000879FFF7E8FE00EB8000C449096801EB52
:100C70004000C2490860C0494879FFF7DCFEBF491F
:100C800009680844BD490860BB4801E071E060E0C4
:100C90000078BB49A1F89001B7484078A1F89201CB
:100CA000B5488078A1F89401B348C078A1F89601BE
:100CB000B1480079A1F89801AF484079A1F89A01AC
:100CC000AD488079A1F89C01AB48C079A1F89E019C
:100CD000A948007AA1F8A001A748407AA1F8A2018A
:100CE000A548807AA1F8A401A348C07AA1F8A6017A
:100CF000A148007BA1F8A8019F48407BA1F8AA0168
:100D00009E4800684FF6FF7101EA10409C49A1F827
:100D1000AC019A480088A1F8AE0198480068000E1E
:100D20009849087095480068000C487093480088FE
:100D3000000A887091480078C8708F480078087160
:100D40009148007848718C488079887101208F49DA
:100D5000087001208D490870854800780E2802D35C
:100D600000208349087040F22551804802F00CFDB4
:100D700000BF10BD10B504462021854800F077FF64
:100D80008048C079401C7F49C871202C7ED2DFE8A2
:100D900004F010273E556C859CB3E1E0DFDEDDDC1E
:100DA000DBDAD9D8D7D6D5D4D3D2D1D0CFCECDCC0B
:100DB000CBCA0121774800F05CFF0421754800F0A0
:100DC00056FF8021724800F054FF4021704800F027
:100DD00050FF00231A4619461846FFF74EFEFDE263
:100DE00001216C4800F045FF04216A4800F041FFF2
:100DF0008021674800F03BFF4021654800F039FF43
:100E000000231A4619461846FFF737FEE6E201218D
:100E1000604800F02EFF04215E4800F02AFF802188
:100E20005B4800F026FF4021594800F022FF0023D4
:100E30001A4619461846FFF720FECFE20121554811
:100E400000F015FF0421534800F011FF80215048A5
:100E500000F00DFF40214E4800F009FF00231A4624
:100E600019461846FFF709FEB8E20121494800F08B
:100E700000FF0421474800F0FCFE8021444800F0B8
:100E8000F8FE4021424800F0F2FE00E0A1E200231B
:100E90001A4619461846FFF7F0FD9FE201213D482A
:100EA00000F0E7FE04213B4800F0E3FE80213848D3
:100EB00000F0DDFE4021364800F0D9FE00231A463E
:100EC00019461846FFF7D9FD88E20121314800F0A4
:100ED000D0FE04212F4800F0CAFE80212C4800F0EB
:100EE000C6FE40212A4800F0C2FE00231A461946D9
:100EF0001846FFF7C2FD71E20121264800F0B9FE55
:100F00000421244800F0B3FE8021214800F0B1FE06
:100F100040211F4800F0ABFE00231A461946184630
:100F2000FFF7ABFD5AE23DE220E208E2F4E1DCE14A
:100F3000CCE1B8E1A0E188E170E158E140E128E1CD
:100F400010E1F8E0E0E0C8E0B0E098E080E068E0C0
:100F500050E038E020E00000436F6E74726F6C4325
:100F600068616E6E656C735461736B00004800407D
:100F700018000020E6010020D80100201C000020FD
:100F8000A8300020B0020020A8000020240000208B
:100F900000080140001001400121FE4800F069FEF8
:100FA0000421FC4800F063FE8021FB4800F05FFE56
:100FB0004021F94800F05DFE00231A461946184604
:100FC000FFF75BFD0AE20121F24800F050FE042128
:100FD000F04800F04CFE8021EF4800F04AFE40212E
:100FE000ED4800F046FE0023012211461846FFF7A7
:100FF00044FDF3E10121E74800F039FE0421E54812
:1010000000F035FE8021E44800F031FE4021E24846
:1010100000F02FFE0023012211461846FFF72DFD98
:10102000DCE10121DB4800F022FE0421D94800F078
:1010300020FE8021D84800F01CFE4021D64800F058
:1010400018FE0023012211461846FFF716FDC5E1E0
:101050000121D04800F00BFE0421CE4800F009FE2B
:101060008021CD4800F005FE4021CB4800F0FFFD77
:101070000123002211461046FFF7FFFCAEE10121DB
:10108000C44800F0F4FD0421C24800F0F2FD8021C4
:10109000C14800F0EEFD4021BF4800F0E8FD00230C
:1010A000012211461846FFF7E8FC97E10121B948F3
:1010B00000F0DDFD0421B74800F0DBFD8021B648DB
:1010C00000F0D5FD4021B44800F0D3FD00231A46BE
:1010D00019461846FFF7D1FC80E10121AD4800F028
:1010E000C6FD0421AB4800F0C4FD8021AA4800F0F1
:1010F000BEFD4021A84800F0BCFD0023012211469E
:101100001846FFF7BAFC69E10121A24800F0B1FDE1
:101110000421A04800F0ABFD80219F4800F0A9FD0C
:1011200040219D4800F0A5FD00231A4619461846A7
:10113000FFF7A3FC52E10121964800F09AFD04213B
:10114000944800F096FD8021934800F090FD4021E6
:10115000914800F08EFD00231A4619461846FFF705
:101160008CFC3BE101218B4800F083FD0421894880
:1011700000F07FFD8021884800F07BFD40218648FB
:1011800000F077FD00231A4619461846FFF775FC54
:1011900024E101217F4800F06AFD04217D4800F030
:1011A00066FD80217C4800F062FD40217A4800F015
:1011B0005EFD00231A4619461846FFF75EFC0DE156
:1011C0000121744800F055FD0421724800F051FDE2
:1011D0008021714800F04DFD40216F4800F047FD2F
:1011E00000231A4619461846FFF747FCF6E001218E
:1011F000684800F03EFD0421664800F03AFD802179
:10120000654800F034FD4021634800F030FD0023C4
:101210001A4619461846FFF730FCDFE001215D4809
:1012200000F027FD04215B4800F021FD80215A4891
:1012300000F01DFD4021584800F019FD00231A461A
:1012400019461846FFF719FCC8E00121514800F083
:1012500010FD04214F4800F00AFD80214E4800F0A7
:1012600008FD40214C4800F002FD00231A461946B3
:101270001846FFF702FCB1E00121464800F0F9FCF6
:101280000421444800F0F3FC8021434800F0EFFCC7
:101290004021414800F0EDFC00231A46194618464B
:1012A000FFF7EBFB9AE001213A4800F0E0FC8021D7
:1012B000394800F0DCFC4021374800F0DAFC00231C
:1012C0001A4619460120FFF7D8FB87E00121314873
:1012D00000F0CDFC4021304800F0C9FC00231A4644
:1012E00019460120FFF7C9FB78E00121294800F0E9
:1012F000BEFC0421274800F0BCFC8021264800F0F9
:10130000B8FC4021244800F0B2FC00231A461946DC
:101310000120FFF7B2FB61E001211E4800F0A7FCAD
:1013200080211D4800F0A5FC40211B4800F09FFCD7
:1013300000231A4619460120FFF79FFB4EE00121CA
:10134000144800F094FC0421124800F092FC802123
:10135000114800F08EFC40210F4800F088FC00236B
:101360001A4619460120FFF788FB37E0012109489A
:1013700000F07DFC0421074800F07BFC802106483A
:1013800000F075FC4021044800F073FC00231A466D
:10139000194603E000100140000801401846FFF71D
:1013A0006CFB1BE00121164800F061FC042114488D
:1013B00000F05FFC8021134800F059FC40211148E7
:1013C00000F057FC0023012211461846FFF755FB99
:1013D00004E0C5210A4800F04CFC00BF00BF10BD6E
:1013E00010B504462CB94FF40051074800F03FFCFB
:1013F00005E0012C03D16103034800F03AFC10BD65
:101400000010014000080140000C01403149014337
:10141000314A1160704770B5002100230F22C47853
:1014200004B32D4C246804F4E064C4F5E064210A9C
:10143000C1F10403CA40447804FA03F184781440EB
:1014400021430901254C0678A155047804F01F05B5
:101450000124AC4005786D11AD0005F1E025C5F81B
:10146000004109E0047804F01F050124AC401C4D44
:101470000678761145F8264070BD1A4A0A400243A4
:10148000154B1B1F1A60704739B1134A121D1268A1
:101490000243114B1B1D1A6006E00F4A121D126811
:1014A00082430D4B1B1D1A607047042808D14FF072
:1014B000E021096941F004014FF0E022116107E0E9
:1014C0004FF0E021096921F004014FF0E0221161A1
:1014D000704700000000FA050CED00E000E400E0B9
:1014E00080E100E080FFFF1F10B50446FA48844207
:1014F00008D10121401501F005F80021601501F027
:1015000001F817E0F548844208D10121001500F0E8
:10151000F9FF0021201500F0F5FF0BE0F0488442B0
:1015200008D10121C80300F0EDFF00214FF4004075
:1015300000F0E8FF10BD30B50246002000235068DF
:10154000E84C20400D790C6844EA052420435060A3
:101550009068E54C2040D1E902542C434D7944EA8F
:10156000450420439060D06A20F470000C7C641E17
:10157000E4B2234340EA0350D06230BD0021016051
:10158000017141718160C16001210174704721B115
:10159000826842F00102826003E0826822F0010268
:1015A0008260704721B1826842F48072826003E0F9
:1015B000826822F480728260704710B50023CBB23B
:1015C0001AB144681C43446002E044689C43446090
:1015D00010BD816841F0080181607047014600201C
:1015E0008A6802F008020AB1012000E0002070477A
:1015F000816841F0040181607047014600208A68DB
:1016000002F004020AB1012000E00020704721B17D
:10161000826842F4A002826003E0826822F4A002A1
:1016200082607047014600208A6802F480020AB195
:10163000012000E00020704710B50A460021002379
:10164000416821F46041531E41EA4331416010BDBD
:1016500021B1426842F40062426003E0426822F431
:10166000006242607047F0B504460D46002000213C
:10167000092D11DDE068A5F10A0606EB46070726ED
:1016800006FA07F18843A5F10A0606EB460603FAB7
:1016900006F10843E0600CE0206905EB45070726EA
:1016A00006FA07F1884305EB450603FA06F10843FD
:1016B0002061072A0FDA606B561E06EB86071F268D
:1016C00006FA07F18843561E06EB860605FA06F170
:1016D0000843606322E00D2A0FDA206BD61F06EB69
:1016E00086071F2606FA07F18843D61F06EB8606F3
:1016F00005FA06F10843206310E0E06AA2F10D0646
:1017000006EB86071F2606FA07F18843A2F10D06AD
:1017100006EB860605FA06F10843E062F0BD21B14A
:10172000826842F48012826003E0826822F48012B0
:10173000826070470146C86C80B2704766484C3082
:101740000068704721B1426842F48062426003E061
:10175000426822F480624260704721B1426842F4DC
:101760008052426003E0426822F480524260704737
:101770000A460021816821F4E041114381607047ED
:1017800021B1826842F40042826003E0826822F460
:1017900000428260704721B1826842F40212826086
:1017A00003E0826822F40212826070470146002042
:1017B0008A6802F400120AB1012000E0002070479C
:1017C000F0B504461546002000220026092911DD47
:1017D000E068A1F10A0707EB470C072707FA0CF2AC
:1017E0009043A1F10A0707EB470703FA07F21043FA
:1017F000E0600CE0206901EB410C072707FA0CF2CE
:10180000904301EB410703FA07F210432061A06BFC
:10181000C0F30156EF1C06F1010CA7EB0C0707EB18
:10182000870C1F2707FA0CF29043EF1C06F1010CFE
:10183000A7EB0C0707EB870701FA07F21043A06339
:10184000F0BD10B50A4600210023816B21F4401140
:10185000531E41EA0351816310BD08B50023009374
:101860000090009B0B440093009B1A6008BD08B5D4
:10187000024600200090009201F12800009B1844CD
:1018800000900098006880B208BD0A4600214168B7
:10189000164B1940114341607047416282627047A4
:1018A0000A460021416821F01F0111434160704741
:1018B00040B109490831096841F40001064A08327B
:1018C000116007E004490831096821F40001024A67
:1018D00008321160704700000024014000280140D8
:1018E000003C0140FFFEF0FFFDF7F1FFFFFD3FFF71
:1018F0000246002013680B400BB1012000E00020DD
:101900007047CA430260704770B50246002000234A
:1019100000240B125568CEB205EA060415681D4076
:1019200015B10CB1012000E0002070BD00220A12A8
:10193000D343036070470000002044490860091D3C
:101940000860091D0860091D086041483F491431BD
:101950000860704700213D498279002A3AD00A4642
:10196000126803689A430B461A600A1D12680368DE
:101970009A430B1D1A60027911440A6803681A43DE
:101980000A60324A0832126803689A432F4B0833C0
:101990001A601A1D126803689A432C4B0C331A60A4
:1019A0004279102A0ED11A1F126803681A43274B76
:1019B00008331A601A1D126803681A43234B0C334C
:1019C0001A600DE02149427911440A6803681A43FC
:1019D0000A6005E0027911440A6803689A430A60C4
:1019E00070470021016001710C214171002181715A
:1019F00070471649103109680143144A10321160CA
:101A0000704701460020114A143212680A400AB198
:101A1000012000E0002070470C4914310860704735
:101A2000014600200022094B1B6803EA0102074B14
:101A300014331B680B4013B10AB1012000E00020F1
:101A400070470249143108607047000000040140EB
:101A5000FFFF0F0010B50446CC48844208D1012195
:101A6000042000F04FFD0021042000F04BFD46E073
:101A7000C748844208D10121082000F043FD00211D
:101A8000082000F03FFD3AE0C248844208D101211D
:101A9000102000F037FD0021102000F033FD2EE073
:101AA000BD48844208D10121202000F02BFD0021F7
:101AB000202000F027FD22E0B848844208D101210F
:101AC000402000F01FFD0021402000F01BFD16E02B
:101AD000B348844208D10121802000F013FD002189
:101AE000802000F00FFD0AE0AE48844207D10121BA
:101AF000801500F007FD0021A01500F003FD10BDCA
:101B000010B50121084600F0FDFC0021012000F085
:101B1000F9FC10BD2DE9F041024600250026002009
:101B200000230024002791F803C00CF00F0591F862
:101B300003C00CF0100CBCF1000F03D091F802C0F0
:101B40004CEA050591F800C0BCF1000F31D01468D3
:101B500000202BE04FF0010C0CFA00F3B1F800C0AC
:101B60000CEA03069E4220D183004FF00F0C0CFAC2
:101B700003F7BC4305FA03FC4CEA040491F803C0E4
:101B8000BCF1280F06D14FF0010C0CFA00FCC2F892
:101B900014C00AE091F803C0BCF1480F05D14FF022
:101BA000010C0CFA00FCC2F810C0401C0828D1D36C
:101BB0001460B1F800C0BCF1FF0F34DD54680020A0
:101BC0002EE000F1080C4FF0010808FA0CF3B1F810
:101BD00000C00CEA03069E4221D183004FF00F0C97
:101BE0000CFA03F7BC4305FA03FC4CEA040491F831
:101BF00003C0BCF1280F05D100F1080C08FA0CF85D
:101C0000C2F8148091F803C0BCF1480F07D100F16D
:101C1000080C4FF0010808FA0CF8C2F81080401CBC
:101C20000828CED35460BDE8F0814FF6FF710180E3
:101C3000022181700421C170704702460020936820
:101C40000B400BB1012000E000207047014688687E
:101C500080B2704702460020D3680B400BB10120D0
:101C600000E0002070470146C86880B270470161FB
:101C70007047416170470AB1016100E041617047FE
:101C8000C16070474FF480320A4382618161826192
:101C900082698269704702460020434B18684FF6FC
:101CA0008073184040EA021008433F4B18607047A9
:101CB0003E49C8617047F0B50A4600230024002160
:101CC000002500F00046B6F1004F02D1364EF16912
:101CD00001E0354E7168C0F3034583B200F440164D
:101CE000B6F5401F08D121F070612F4E766826F0BE
:101CF00070662D4F7E6012E000F48016B6F5801FEE
:101D000006D1032606FA05F4A14341F0706106E00E
:101D1000460D360103FA06F6B14341F0706122B177
:101D2000460D360103FA06F6314300F00046B6F1DF
:101D3000004F02D11C4EF16101E01B4E7160F0BDFD
:101D400030B500228B071C0F0F2303FA04F2164B49
:101D500008338C1053F824309343134C08348D10FF
:101D600044F8253023468C1053F824308C07240F78
:101D700000FA04F423430C4C08348D1044F8253049
:101D800030BD0A49DC31086070470000000801409E
:101D9000000C0140001001400014014000180140F7
:101DA000001C0140002001400000014000002042D2
:101DB00010B50446F748844209D10121480500F0D6
:101DC000AEFB00214FF4001000F0A9FB08E0012158
:101DD000880500F0A4FB00214FF4800000F09FFB79
:101DE00010BD2DE9F04385B004460D460026B146EE
:101DF0000427DFF8A483A6884FF6C0700640684623
:101E000000F0F9FADDF80880E448B8FBF0F01FFABA
:101E100080F946EA0906A68020884FF6FE71084040
:101E200020800026DE49286888420CD828684000B7
:101E3000B8FBF0F087B2042F00DA04273E4309F123
:101E40000100208427E0E8884BF6FF71884206D124
:101E5000286800EB4000B8FBF0F087B209E0286882
:101E600000EBC00101EB0010B8FBF0F087B247F4C3
:101E70008047C7F30B0008B947F0010747F400405B
:101E800006434FF4967009FB00F04FF47A7190FB13
:101E9000F1F0401C2084A683208840F001002080BF
:101EA00026884FF6F5300640A8886989084306431E
:101EB0002680A88929890843208105B0BDE8F083E0
:101EC00041F288310160002181804BF6FF71C180B1
:101ED0000021018141814FF480418181704721B10E
:101EE000028842F00102028004E002884FF6FE738D
:101EF0001A400280704721B1828842F400628280D9
:101F000004E082884FF2FF731A408280704721B14B
:101F1000828842F48052828004E082884EF6FF7309
:101F20001A408280704721B1028842F48072028098
:101F300004E002884FF6FF631A400280704721B127
:101F4000028842F40072028004E002884FF6FF53D8
:101F50001A400280704721B1028842F480620280F8
:101F600004E002884FF6FF331A40028070470A46A9
:101F7000002181894FF60173194002F0FE031943D5
:101F80008181704721B1828942F00102828104E09F
:101F900082894FF6FE731A408281704721B1028810
:101FA00042F04002028004E002884FF6BF731A40FC
:101FB000028070471AB183880B43838002E08388D4
:101FC0008B4383807047018270470146088AC0B204
:101FD000704712B141F0010102E04FF6FE73194063
:101FE0000182704708B502460020009000920098D8
:101FF000084400900098008808BD21B1028842F48E
:102000000042028003E00288C2F30E0202807047A1
:10201000B1F5006F04D1028842F40062028004E04E
:1020200002884FF2FF731A4002807047B1F5005FDB
:1020300004D1028842F40052028004E002884DF686
:10204000FF731A400280704721B1028842F4805227
:10205000028004E002884EF6FF731A400280704747
:10206000B1F5006F04D1028842F40062028004E0FE
:1020700002884FF2FF731A400280704721B1028834
:1020800042F02002028004E002884FF6DF731A401B
:10209000028070470146088B0012704721B1028808
:1020A00042F01002028004E002884FF6EF731A40FB
:1020B0000280704721B9028842F08002028004E069
:1020C00002884FF67F731A4002807047B1F5804F47
:1020D00005D0828B4BF6FF731A40828303E0828B1C
:1020E00042F480428283704770B502460024002586
:1020F00000230020958A138B1B0445EA030626F073
:102100007F4404EA01068E4201D1012000E0002054
:1021100070BD10B501460020002300228B8A0A8B77
:10212000120443EA020424F07F4010BD0CB50246BD
:10213000002000230193009300920B0F019321F0E4
:102140007F41019B1BB1009B1433009303E0090CFA
:10215000009B18330093009B1B680B400BB10120C0
:1021600000E000200CBD002221F07F42D343838297
:10217000704730B5024600200023948801F0E065E6
:1021800004EA154321F07F41948A0C4054B14BB1CD
:10219000012008E00054004000127A0040420F0085
:1021A000A0860100002030BD002221F07F42D343F1
:1021B000838270470E49086070470D494860704738
:1021C0000B49886070474AF6AA20094908607047A1
:1021D0004CF6CC4006490860704701460020044A8E
:1021E000D2680A400AB1012000E0002070470000D8
:1021F00000300040DF48006840F00100DD49086021
:1022000008464068DC490840DA49486008460068EA
:10221000DA490840D74908600846006820F4802061
:1022200008600846406820F4FE0048604FF41F0034
:1022300088607047CF49096821F48031CD4A116028
:102240001146096821F480211160B0F5803F03D068
:10225000B0F5802F0ED106E0C649096841F48031FF
:10226000C44A116007E0C349096841F4A021C14A8A
:10227000116000E000BF00BF704710B501460022AA
:10228000002300204A11012A02D1BA4C236806E03B
:10229000022A02D1B74C236A01E0B64C636A01F00E
:1022A0001F02012494401C400CB1012000E00020DA
:1022B00010BD38B5002000900024002500BF31205B
:1022C000FFF7DBFF05460098401C00900098B0F532
:1022D000A06F01D0002DF2D03120FFF7CEFF08B162
:1022E000012400E00024204638BD01460020A14A18
:1022F000106820F0F80040EAC10010607047A04963
:1023000008607047024600209A4B586820F47C1001
:1023100042EA01031843974B586070479849086692
:10232000704701460020934A506820F0030008439C
:10233000506070478F48406800F00C0070470146BD
:1023400000208C4A506820F0F0000843506070472D
:1023500001460020874A506820F4E060084350603E
:10236000704701460020834A506820F4605040EADC
:10237000C1005060704729B17E4A527A02437D4BBA
:102380005A7204E07B4A527A82437A4B5A727047FF
:102390007B49D8310860704701460020754A506873
:1023A00020F440400843506070470021714A2032B9
:1023B0001170704A82F82010012802D004280AD136
:1023C00004E001216B4A2032117005E00521694AC1
:1023D0002032117000E000BF00BF704769490860FB
:1023E00070476449096A0143624A1162704765494E
:1023F00044390860704730B50021002200240023D2
:102400005C4D6D6805F00C0121B1042905D0082947
:1024100023D105E05C4D056022E05B4D05601FE0C7
:10242000544D6D6805F47012524D6D6805F480349A
:10243000022505EB92421CB9544D554305600BE053
:102440004C4D6D6805F400351DB1504D5543056088
:1024500002E04D4D5543056002E04B4D056000BF65
:1024600000BF444D6D6805F0F0010909484D6B5CF3
:102470000568DD4045603F4D6D6805F4E061090A7F
:10248000434D6B5C4568DD4085603A4D6D6805F4F1
:102490006051C90A3E4D6B5C4568DD40C560354DF5
:1024A0006D6805F44041890B3A4D6B5CC568B5FB1E
:1024B000F3F5056130BD29B12E4A526902432D4B17
:1024C0005A6104E02B4A526982432A4B5A61704791
:1024D00029B1284A92690243264B9A6104E0254AB1
:1024E00092698243234B9A61704729B1214AD2698C
:1024F0000243204BDA6104E01E4AD26982431D4B3D
:10250000DA61704729B11B4AD2680243194BDA607D
:1025100004E0184AD2688243164BDA60704729B14A
:10252000144A12690243134B1A6104E0114A1269FA
:102530008243104B1A617047124940390860704756
:102540000F49C86470470B49C87170470948406A11
:1025500040F0807007494862704701460020054AF4
:1025600092680A400AB1012000E00020704701494A
:1025700088727047001002400000FFF8FFFFF6FE6F
:10258000000042428004424200127A0000093D00ED
:10259000260000203600002010B50446FE48844284
:1025A00008D10121C014FFF7ADFF0021E014FFF7AF
:1025B000A9FFC4E0B4F1804F08D101210846FFF71C
:1025C000AEFF00210120FFF7AAFFB8E0F3488442E4
:1025D00008D101210220FFF7A2FF00210220FFF70E
:1025E0009EFFACE0EE48844208D101210420FFF7B1
:1025F00096FF00210420FFF792FFA0E0E948844203
:1026000008D101210820FFF78AFF00210820FFF7E9
:1026100086FF94E0E448844208D101211020FFF7AE
:102620007EFF00211020FFF77AFF88E0DF48844218
:1026300008D101212020FFF772FF00212020FFF7A1
:102640006EFF7CE0DA48844208D101214014FFF794
:1026500059FF00216014FFF755FF70E0D548844210
:1026600009D10121C804FFF74DFF00214FF40020DC
:10267000FFF748FF63E0D048844209D101210805F3
:10268000FFF740FF00214FF48010FFF73BFF56E0BB
:10269000CA48844209D101214805FFF733FF0021D0
:1026A0004FF40010FFF72EFF49E0C548844208D1DF
:1026B00001214020FFF733FF00214020FFF72FFFCB
:1026C0003DE0C048844208D101218020FFF727FF68
:1026D00000218020FFF723FF31E0BB48844208D16E
:1026E00001218015FFF71BFF0021A015FFF717FF41
:1026F00025E0B648844209D101210804FFF702FF12
:1027000000214FF48030FFF7FDFE18E0B04884420E
:1027100009D101214804FFF7F5FE00214FF40030F4
:10272000FFF7F0FE0BE0AB48844208D1012188049A
:10273000FFF7E8FE00214FF48020FFF7E3FE10BD15
:1027400000220288944B98420ED0994B98420BD0AD
:10275000B0F1804F08D0914B984205D0904B9842F1
:1027600002D0904B984204D14FF68F731A404B8899
:102770001A438D4B984207D08C4B984204D04FF6A9
:10278000FF431A40CB881A4302808B8883850B88CD
:102790000385814B98420BD0854B984208D08B4BD8
:1027A000984205D08A4B984202D08A4B984201D178
:1027B0000B7A038601238382704770B500240022C0
:1027C0000023058C4FF6FE7635400584028C838805
:1027D000048B4FF68F752C40B51E2C400D882C4372
:1027E000751E2A400D892A434D882A436A4DA84206
:1027F0000BD06F4DA84208D0744DA84205D0744D3F
:10280000A84202D0734DA84213D14FF6F7752A4063
:102810004D892A434FF6FB752A408D882A434FF68F
:10282000FF652B404FF6FF552B408D892B43CD89FB
:102830002B4383800483CD888586028470BD70B568
:10284000002400220023058C4FF6EF7635400584E6
:10285000028C8388048B48F6FF752C404FF6FF45A9
:102860002C400D884FF6FF7606EA05252C434FF6DF
:10287000DF752A400D8906EA05152A434D8806EAC8
:1028800005152A43444DA84202D0494DA8421DD106
:102890004FF67F752A404D894FF6FF7606EA0515FB
:1028A0002A434FF6BF752A408D8806EA05152A434C
:1028B0004FF6FF352B404FF2FF752B408D8906EA0E
:1028C00085052B43CD8906EA85052B438380048348
:1028D000CD880587028470BD70B5002400220023D6
:1028E000058C4FF6FF6635400584028C8388848B07
:1028F0004FF68F752C404FF6FC752C400D882C43FD
:102900004FF6FF552A400D894FF6FF7606EA05255A
:102910002A434D8806EA05252A431F4DA84202D0C6
:10292000234DA8421DD14FF2FF752A404D894FF625
:10293000FF7606EA05252A434FF6FF352A408D88A3
:1029400006EA05252A434EF6FF752B404DF6FF7526
:102950002B408D8906EA05152B43CD8906EA05151E
:102960002B4383808483CD888587028470BD70B5B6
:10297000002200230024058C4EF6FF7635400584A6
:10298000038C8488828B48F6FF752A404FF6FF45FA
:102990002A400D8820E00000002C01400004004087
:1029A00000080040000C00400010004000140040EF
:1029B00000340140004C01400050014000540140EF
:1029C00000180040001C0040002000400040014072
:1029D00000440140004801404FF6FF7606EA052515
:1029E0002A434DF6FF752B400D8906EA05352B432A
:1029F0004D8806EA05352B43FA4DA84202D0FA4D20
:102A0000A84208D14BF6FF752C408D894FF6FF7612
:102A100006EA85152C4384808283CD88A0F8405037
:102A2000038470BD828B4FF2FF331A408283828B06
:102A30004FF6FF7303EA01231A4382837047F0B510
:102A40000C461546002200210026078C4EF6FF7C1E
:102A500007EA0C070784828B018C4FF6FF7707EAA1
:102A6000043640F6FF473A404FF6FF7707EA05275E
:102A70003A434FF6FF7707EA03373A43D94FB84254
:102A80000ED0D94FB8420BD0B0F1804F08D0D74FFD
:102A9000B84205D0D64FB84202D0D64FB84206D180
:102AA0004DF6FF77394046F48057394305E047F645
:102AB000FF57394044F48057394382830184F0BD85
:102AC000828B4FF6F3731A408283828B0A43828390
:102AD0007047F0B50C461546002200210026078CF1
:102AE0004FF6FF6C07EA0C070784828B018C4FF6C8
:102AF000FF7707EA04264FF60C773A404FF6FF7748
:102B000007EA03172F433A43B64FB8420ED0B64FE9
:102B1000B8420BD0B0F1804F08D0B44FB84205D0C6
:102B2000B34FB84202D0B34FB84206D14FF6FF5769
:102B3000394046F48077394305E04FF2FF5739407A
:102B400044F48077394382830184F0BD028B4FF2D5
:102B5000FF331A400283028B4FF6FF7303EA01230F
:102B60001A4302837047F0B50C4615460022002137
:102B70000026078C4FF6EF7C07EA0C070784028BD0
:102B8000018C4FF6FF7707EA041640F6FF473A40FC
:102B90004FF6FF7707EA03373A434FF6FF7707EA26
:102BA00005273A438F4FB8420ED08F4FB8420BD013
:102BB000B0F1804F08D08D4FB84205D08C4FB8424D
:102BC00002D08C4FB84206D14FF6DF77394046F03D
:102BD0001007394305E04FF65F77394044F010079E
:102BE000394302830184F0BD028B4FF6F3731A4020
:102BF0000283028B0A4302837047F0B50C461546E8
:102C000000220021068C4FF6FE773E400684028BA0
:102C1000018C4FF60C7632407E1C06EA03162E43DA
:102C20003243704EB0420ED06F4EB0420BD0B0F176
:102C3000804F08D06D4EB04205D06D4EB04202D0EC
:102C40006C4EB04206D14FF6FD76314044F001069D
:102C5000314305E04FF6F576314044F0010631434B
:102C600002830184F0BD70B505460C465D4885427F
:102C70000ED05D4885420BD0B5F1804F08D05B483F
:102C8000854205D05A48854202D05A48854200D133
:102C900000E000BF208850B92389A28861882846B7
:102CA000FFF7ABFFE1882846FFF79EFF25E020886D
:102CB00004280AD12389A28861882846FFF753FF98
:102CC000E1882846FFF742FF17E0208808280AD14C
:102CD0002389A28861882846FFF7FBFEE188284601
:102CE000FFF7EEFE09E02389A28861882846FFF7F6
:102CF000A6FEE1882846FFF795FE70BD2DE9F0415C
:102D000005460C4600260127608808B9022600E027
:102D10000026A088012801D1022700E00127208891
:102D2000A0B92389A28861882846FFF766FFE18859
:102D30002846FFF759FF23893A4631462846FFF7D0
:102D400012FFE1882846FFF701FF13E02389A288DC
:102D500061882846FFF707FFE1882846FFF7F6FE5F
:102D600023893A4631462846FFF747FFE18828463F
:102D7000FFF73AFFBDE8F0810A884B881A438B8839
:102D80001A43CB881A430B891A434B891A438B8900
:102D90001A43A0F8442070474FF6FF71818000214C
:102DA0000180C18041800172704700210180418013
:102DB0008180C180018141818181C1817047002171
:102DC00001804180012181800021C1800181704703
:102DD0000021018041808180C18001814181818108
:102DE00070470000002C0140003401400004004006
:102DF00000080040000C004021B1028842F00102AE
:102E0000028004E002884FF6FE731A400280704789
:102E100031B1B0F8442042F40042A0F8442005E06B
:102E2000B0F84420C2F30E02A0F8442070471AB153
:102E300083890B43838102E083898B4383817047BD
:102E40008182704741EA0203A0F8483070471AB106
:102E500083890B43838102E083898B43838170479D
:102E600001894FF6F8721140018170470A4600212E
:102E700001894FF68F73194011430181704730B5B6
:102E800004460D4629462046FFF7F0FF208940F012
:102E90000700208130BD2DE9F04104460D4616465D
:102EA0001F46602D06D13B46012231462046FFF7E2
:102EB0005AFE05E03B46012231462046FFF79DFEC3
:102EC00029462046FFF7D2FF208940F007002081E5
:102ED000BDE8F08130B50C4600210189C9B24FF63A
:102EE000FF7505EA0325154325432943018130BDBC
:102EF0002DE9F04105460E46174698460024434604
:102F00003A4631462846FFF7E5FF2C894FF6F87020
:102F1000044044F007044FF68F70044044F07004FE
:102F20002C81BDE8F081F0B504460D4616461F46DB
:102F30003B46324629462046FFF7CCFF208940F425
:102F400080402081F0BD0185828270470A460021C1
:102F500001884FF68F731940114301807047F0B517
:102F60000C4615461E460021002200230189028BD3
:102F7000038C4FF6F877394021434FF6FC473A402F
:102F800040F201173A434FF6DD773B404FF6FF77AB
:102F900007EA06172F433B43018102830384F0BDF8
:102FA0000A460021018B4FF68F73194011430183AC
:102FB00070470A460021018B48F6FF7319404FF60F
:102FC000FF7303EA02231943018370470A46002175
:102FD000818B4FF68F7319401143818370470A46E6
:102FE0000021818B48F6FF7319404FF6FF7303EA07
:102FF000022319438183704721B1028842F0800285
:10300000028004E002884FF67F731A400280704706
:1030100021B1828842F00402828004E082884FF667
:10302000FB731A408280704721B1828842F0080207
:10303000828004E082884FF6F7731A4082807047DE
:1030400021B1828842F00102828004E082884FF63A
:10305000FE731A40828070470A460021018B4FF6AA
:10306000F77319401143018370470A460021018B11
:103070004FF2FF7319404FF6FF7303EA022319431F
:10308000018370470A460021818B4FF6F773194080
:103090001143818370470A460021818B4FF2FF73F1
:1030A00019404FF6FF7303EA0223194381837047E7
:1030B0000A460021018B4FF6FB731940114301832F
:1030C00070470A460021018B4FF6FF3319404FF637
:1030D000FF7303EA02231943018370470A46002164
:1030E000818B4FF6FB7319401143818370470A4669
:1030F0000021818B4FF6FF3319404FF6FF7303EA2F
:1031000002231943818370470A460021018B4FF641
:103110007F7319401143018370470A460021018BD8
:10312000C1F30E014FF6FF7303EA02231943018333
:1031300070470A460021818B4FF67F731940114377
:10314000818370470A460021818BC1F30E014FF63F
:10315000FF7303EA02231943818370470A46002163
:10316000018C4FF6FD7319401143018470470A46E4
:103170000021018C4FF6F773194011430184704709
:103180000A460021018C4FF6DF7319404FF6FF739A
:1031900003EA02131943018470470A460021018C97
:1031A0004FF67F7319404FF6FF7303EA021319437A
:1031B000018470470A460021018C4FF6FF531940E5
:1031C0004FF6FF7303EA02231943018470470A464E
:1031D0000021018C4FF2FF7319404FF6FF7303EA91
:1031E00002231943018470470A460021018C4DF6E1
:1031F000FF7319404FF6FF7303EA0233194301844A
:10320000704730B5002301248C40A3B2048C9C434A
:103210000484048C02FA01F5ADB22C43048430BD61
:1032200030B5002304248C40A3B2048C9C43048456
:10323000048C02FA01F5ADB22C43048430BD70B5A4
:103240000346002000241846183001258D40ACB2FA
:103250001D8CA5431D8409B1082909D100EB61002B
:10326000056825F0700505600568154305600EE0EA
:103270000D1FC5F34E052844056825F4E04505609B
:1032800005684FF6FF7606EA02263543056070BDF5
:1032900021B1028842F00202028004E002884FF667
:1032A000FD731A400280704721B1028842F0040287
:1032B000028004E002884FF6FB731A4002807047D8
:1032C00021B1828842F08002828004E082884FF639
:1032D0007F731A408280704702884FF6F7731A4056
:1032E000028002880A430280704782884FF68F73FB
:1032F0001A40828082880A438280704702894FF692
:10330000F8731A40028102890A43028170470289D8
:103310004FF67F731A40028102890A430281704787
:103320008184704781857047818670470187704727
:1033300081877047A0F84010704702884FF6FF431E
:103340001A40028002880A43028070470146888E34
:1033500070470146088F70470146888F70470146C5
:10336000B1F8400070470146888C70470146088DCF
:10337000704702460020138A0B400BB1012000E089
:1033800000207047CA430282704730B502460020D1
:1033900000230024158A05EA0103958905EA010442
:1033A00013B10CB1012000E0002030BDCA430282FD
:1033B0007047000010B50446FB48844209D1012142
:1033C0008803FFF79FF800214FF48040FFF79AF839
:1033D00032E0F648844209D101214804FFF79FF802
:1033E00000214FF40030FFF79AF825E0F0488442BE
:1033F00009D101218804FFF792F800214FF48020C1
:10340000FFF78DF818E0EB48844209D10121C80488
:10341000FFF785F800214FF40020FFF780F80BE05C
:10342000E548844208D101210805FFF778F800211A
:103430004FF48010FFF773F810BD2DE9F04786B008
:1034400005460E460024A24600BFA1460027B089CB
:1034500000B100BF2F462C8A4CF6FF700440F08864
:1034600004432C82AC894EF6F3100440B0883189B5
:103470000843718908430443AC81AC8A4FF6FF408E
:103480000440B0890443AC8201A8FEF7B4FFC648EB
:10349000874202D1DDF810A001E0DDF80CA0A88978
:1034A00000F4004040B10AEBCA0000EB0A1031689A
:1034B0004900B0FBF1F807E00AEBCA0000EB0A1084
:1034C00031688900B0FBF1F86420B8FBF0F004012A
:1034D0002009642101FB1089A88900F4004040B153
:1034E000322000EBC900B0FBF1F000F0070004430C
:1034F00008E0322000EB09106421B0FBF1F000F08D
:103500000F0004432C8106B0BDE8F0874FF416513C
:10351000016000218180C18001810C214181002155
:103520008181704710B502460020108A4FF2FF03D8
:1035300018400B884C8823438C882343CC88234332
:103540001843108210BD0021018041808180C1801C
:10355000704721B1828942F40052828104E082895D
:103560004DF6FF731A4082817047F0B50346002480
:1035700000260025002040F66A17B94200D100BF9E
:103580001846C1F3421401F01F06012707FA06F599
:10359000012C01D10C3004E0022C01D1103000E0EC
:1035A00014301AB107682F43076002E00768AF4381
:1035B0000760F0BD1AB1838A0B43838202E0838ADD
:1035C0008B4383827047028A4FF6F0731A4002825F
:1035D000028A0A430282704782894FF2FF731A40BF
:1035E000828182890A438281704721B1828942F0B7
:1035F0000202828104E082894FF6FD731A408281C3
:103600007047028A4FF6DF731A400282028A0A4329
:103610000282704721B1028A42F48042028204E0B1
:10362000028A4BF6FF731A4002827047C1F3080208
:103630008280704701468888C0F3080070478189FE
:1036400041F0010181817047028BD2B20283028B6B
:1036500042EA012202837047028B02F47F42028316
:10366000028B0A430283704721B1828A42F0200212
:10367000828204E0828A4FF6DF731A4082827047AA
:1036800021B1828A42F01002828204E0828A4FF6DF
:10369000EF731A408282704721B1828A42F0080299
:1036A000828204E0828A4FF6F7731A408282704762
:1036B00021B1828942F40042828103E08289C2F30F
:1036C0000E028281704721B1828A42F400628282B6
:1036D00004E0828A4FF2FF731A4082827047828A26
:1036E0004FF6FB731A408282828A0A4382827047B5
:1036F00021B1828A42F00202828204E0828A4FF67D
:10370000FD731A408282704702460020B1F5007FA7
:1037100000D100BF13880B400BB1012000E0002056
:10372000704701F40072B2F5007F00D100BFCA43B8
:103730000280704770B50246002400230025002057
:1037400040F66A16B14200D100BFC1F3421501F044
:103750001F03012606FA03F3012D02D19689334097
:1037600006E0022D02D1168A334001E0968A3340EA
:103770000C12012606FA04F41688344013B10CB179
:10378000012000E0002070BD10B50022002340F6AB
:103790006A14A14200D100BF0A1201249440A3B2CE
:1037A000DC43048010BD00000038014000440040AC
:1037B00000480040004C0040005000400648804750
:1037C00006480047FEE7FEE7FEE7FEE7FEE7FEE706
:1037D000FEE7FEE7FEE7FEE7BB0500083101000853
:1037E00008B501214FF4E070FEF772FE4FF6F3705A
:1037F000ADF8000010208DF8030003208DF80200C2
:1038000069461C48FEF786F94FF6F3711948FEF732
:103810002EFA4FF27F00ADF8000010208DF8030063
:1038200003208DF8020069461348FEF773F94FF242
:103830007F011148FEF71BFA0F20ADF800001020A1
:103840008DF8030003208DF8020069460B48FEF74F
:1038500061F90B210948FEF70AFA04210748FEF72F
:1038600008FA08BD06480068C0430649C1F8980137
:103870007047000000180140001C0140002001407A
:10388000980123420000234210B501215148FFF75F
:1038900079FD10BD7FB505460C4601210220FEF7DB
:1038A00024FEADF80850ADF804400020ADF80A0041
:1038B000ADF8060001A94748FEF742FF1D208DF82C
:1038C000000000208DF801008DF8020001208DF825
:1038D00003006846FDF79FFD012211463D48FFF7B2
:1038E000A6FA00213B48FFF787FA7FBD10B50121FA
:1038F0003948FFF73EFD39480088401C37490880A9
:1039000037480078012823D108460088142802D1BE
:1039100000203449086031480088282802D101205D
:10392000304908602D4800883C2802D100202D49EC
:1039300008602A480088502802D1012029490860DF
:1039400026480088C82812D10020244908800EE0AB
:103950002348007802280AD1204800884FF4FA71E1
:1039600090FBF1F201FB120008B9FFF77BFF012188
:103970001948FFF707FD10BD7FB505460C4601212C
:103980001020FEF7B2FDADF80850ADF8044000205D
:10399000ADF80A00ADF8060001A90F48FEF7D0FE09
:1039A00036208DF8000001208DF8010003208DF8ED
:1039B000020001208DF803006846FDF72CFD01226E
:1039C00011460548FFF733FA01210348FFF714FABF
:1039D0007FBD000000040040001000403C000020BB
:1039E00000000020980123421FB501214120FEF76D
:1039F0006FFD4FF4F040ADF80C0048208DF80F003B
:103A000003208DF80E0003A9F748FEF783F80E2176
:103A10000420FEF795F90B210420FEF791F90C2103
:103A20000420FEF78DF90D210420FEF789F94FF4EB
:103A3000F040019000208DF808000C208DF809005E
:103A400001208DF80A0001A8FDF784FF28208DF8D9
:103A5000000000208DF8010001208DF802008DF893
:103A600003006846FDF7D7FC1FBD012807D10121DF
:103A7000DE4A11600021DE4AC2F8981117E00228E0
:103A800007D10021D94A11600121D94AC2F8981101
:103A90000DE030B90021D54A1160D54AC2F898111D
:103AA00005E00121D14A1160D14AC2F8981170474E
:103AB00008B501214FF46770FEF70AFD3120ADF81B
:103AC000000000208DF803006946CA48FEF722F87E
:103AD0000320ADF8000000208DF803006946C648B9
:103AE000FEF718F84FF47C60ADF8000010208DF858
:103AF000030003208DF802006946BE48FEF70AF86D
:103B00004FF47C61BB48FEF7B4F84FF40061B9484C
:103B1000FEF7ADF808BD00B585B0FFF7C9FF4FF45B
:103B20000040FEF739FC01214802FEF7D1FC0020DD
:103B300000908DF804008DF805004FF4602002908D
:103B40000020039005208DF810006946AB48FDF772
:103B5000F2FC052301220E21A848FDF784FD052370
:103B600002220F21A548FDF77EFD0523032208212F
:103B7000A248FDF778FD0523042209219F48FDF79F
:103B800072FD05231A460A219C48FDF76CFD0121B0
:103B90009A48FDF7FCFC9948FDF71BFD00BF9748CC
:103BA000FDF71CFD0028FAD19448FDF721FD00BF68
:103BB0009248FDF722FD0028FAD101218F48FDF738
:103BC00026FD05B000BD2DE9F04104460D46164620
:103BD000002702212046FDF794FE052332462946A0
:103BE0002046FDF740FD01212046FDF710FD00BFF6
:103BF00002212046FDF77CFE0028F9D02046FDF783
:103C000099FD07463846BDE8F08110B502467C486C
:103C10004088904201DD322010BD7948C08C90422E
:103C200001DA5A20F8E700212BE0754800EB81000B
:103C30004088904223DC724B481C03EB8000408894
:103C400090421CDD481C33F8200033F82130C01AA4
:103C50006B4B03EB81035B88D31A5843684C4B1CB6
:103C600004EB83035B8804EB810464881B1B90FBDB
:103C7000F3F0634B13F821301844C0B2CCE7481C72
:103C8000C1B20929D1DB0020C6E701465D480078B2
:103C9000552872DB5B48007865286EDC022908D164
:103CA0005848007900F0040008B101207047002056
:103CB000FCE7032908D15348007900F0080008B157
:103CC0000120F3E70020F1E7042908D14D480079ED
:103CD00000F0100008B10120E8E70020E6E7052920
:103CE00008D14848007900F0200008B10120DDE744
:103CF0000020DBE7062908D14248007900F04000A7
:103D000008B10120D2E70020D0E7072908D13D48BB
:103D1000007900F0800008B10120C7E70020C5E766
:103D2000082908D13748808800F4807008B1012044
:103D3000BCE70020BAE7092908D13248808800F49E
:103D4000007008B10120B1E70020AFE70A2908D1CF
:103D50002C48808800F4806008B10120A6E700208C
:103D6000A4E70B290BD12748808800F4006010B12C
:103D700001209BE701E0002098E7012096E700BFC3
:103D800094E72DE9FF5F4FF0000B00250026A846C1
:103D9000A94600240027A24647E001220E21174829
:103DA000FFF711FF054401220F211448FFF70BFF15
:103DB0000644012208211148FFF705FF8044012233
:103DC00009210E48FFF7FFFE814401220A210B481A
:103DD000FFF7F9FE044640F24240844214D9781CB1
:103DE000C7B2A4F2424418E0001801409C012242EC
:103DF0000000224200100140000C0140002401405C
:103E00007A00002040000020B4F54D7F04D2781CD9
:103E1000C7B2C4F54D7400E00024A344052001F0AE
:103E2000E5FF0AF1010000F0FF0ABAF1640FB4DB0C
:103E30006420B5FBF0F5B6FBF0F6B8FBF0F8B9FB83
:103E4000F0F90820FFF721FFC8B1002F12DBBBFB00
:103E5000F7F080B20290FFF7D8FE0446204604EB4C
:103E60004001C1EBC4104FF6FF7101EAC000844964
:103E7000888307E049F640408149888302E00020BA
:103E80007F4988837E497F4A127821F812507D4805
:103E9000007828307C4A22F810507C48007818B905
:103EA0007B48007800B90E827749A1F860607548B8
:103EB0000078401C734908700878C11700EB5171F5
:103EC000C910A0EBC1016F4A11700720FFF7DDFE9A
:103ED000E0B140F6B83008FB00F040F6FF71B0FBEF
:103EE000F1F0029003F05DFC03906A49039803F03F
:103EF000DFFB6949009003F0DBFB6849019003F0A8
:103F000009FC029003F052FC5D4948830320FFF74F
:103F1000BCFE80B140F6B83009FB00F02821B0FBB0
:103F2000F1F040F2FF31B0FBF1F05D490880084646
:103F300000885349C8825348007808285DD2DFE8DA
:103F400000F0040E1A25303B465200205549086007
:103F50005549C1F8A8015349091D08604EE00020E9
:103F60005049086001205049C1F8A80100204D497E
:103F7000091D086042E000204A4908604A49C1F82A
:103F8000A80101204749091D086037E00020454984
:103F9000086001204449C1F8A8014249091D086090
:103FA0002CE001203F49086000203F49C1F8A801EA
:103FB0003C49091D086021E001203A4908603A495E
:103FC000C1F8A80100203749091D086016E001204A
:103FD0003449086000203449C1F8A8010120314962
:103FE000091D08600AE001202E4908602E49C1F829
:103FF000A8012C49091D086000E000BF00BF2B4943
:10400000204A1278885CFFF730FDBDE8FF9F2DE95C
:10401000F04104460D461646642095FBF0F73846FD
:1040200003F0B6FB22490860642096FBF0F738469F
:1040300003F0AEFB1F4908601D48006803F0B6FBA3
:10404000114988821B48006803F0B0FB0E49C88202
:1040500008460483408B401C48830D48007810B903
:1040600007490D828E8204EB4400C0EBC4104FF66A
:10407000FF7101EAC00002490883BDE8F081000039
:1040800014020020A4000020A830002045010020D8
:10409000AE0000200000C84200007A4400007C42CC
:1040A000A2000020A001224200002242F4010020D0
:1040B000680000206C00002001468D48405C70477D
:1040C00008B500200090009008BD8A4A115470473E
:1040D00000B587B001214805FEF707FA0121082045
:1040E000FEF7F6F901210846FEF7F2F9C020ADF817
:1040F000180003208DF81A001C208DF81B0006A95B
:104100007D48FDF707FD1F208DF8140000208DF875
:1041100015008DF8160001208DF8170005A8FDF791
:104120007AF920208DF8140005A8FDF774F9002015
:10413000ADF808004BF6FF70ADF80A00E820ADF8C6
:104140000C004FF48060ADF80E000001ADF81000D7
:104150006A48019001216A48FDF7C1FE01A968483B
:10416000FDF73FFE012251026548FDF723FF0122C2
:1041700091026348FDF71EFF012211026048FDF71E
:1041800019FF07B000BD05E05D48143000885C48A9
:10419000183000885A481430008800F002000228C5
:1041A000F2D008E05648143000885548008840F0A6
:1041B00001005349088052481430008800F0100074
:1041C0001028EFD0704770B54D48FDF7A2FF0546A7
:1041D000B5F1021F03D101204A4908707CE04A482A
:1041E000854240D14648FDF7F0FE04464548007838
:1041F000012808D102204349087044480470002077
:104200004349087068E003203E4908702146404851
:104210000078FFF75AFF3D4800780A2808D1012CA2
:1042200006DB082C04DC2046FCF722FB394804702E
:10423000364800780B2804D11F2C02DC2046FCF7FE
:1042400099FD324800780C2846D10CB1012C43D19D
:104250001CB90020FDF7C4F83EE0012C3CD1012040
:10426000FDF7BEF838E02C48854214D104202549DA
:10427000087000202949087008460078FFF71CFFE5
:10428000044621461E48FDF79EFE24480078401C47
:104290002249087020E02048801C854215D1052065
:1042A000184908701D480078FFF706FF04462146AC
:1042B0001348FDF788FE1948007872280CDA174871
:1042C0000078401C1549087006E0102D04D1FFF756
:1042D0005AFF00200B49087070BD10B510490848FE
:1042E000FDF747FF18B10E490548FDF75DFF10BD0A
:1042F000B002002078030020000C0140A0860100DD
:1043000000540040A500002040000200A900002049
:10431000A7000020A800002082000600A6000020C0
:1043200000040001014648780A7840EA02207047FC
:104330000146087800064A7840EA02408A7840EA56
:104340000220CA781043704708B503461846FFF7A5
:10435000EFFF0090009808BD10B50346002003E071
:104360001C5C0C54441CA0B29042F9DB10BD30B56B
:1043700002460B46FF20002113E0555C68400824EC
:104380000BE000F0800525B1312585EA4005E8B253
:1043900001E04506280E651EECB2002CF1DC4D1C38
:1043A000A9B29942E9DB30BD70B505460E46144608
:1043B00031462846FFF7DBFFA04202D04FF0FF3026
:1043C00070BD0020FCE708B5062000900122694678
:1043D000002000F017F908BD2DE9F04704460F460C
:1043E00090469A4600253A0A29466D1C6254294691
:1043F0006D1C6754002619E038F81600020A28469A
:10440000691C8DB2225418F816202846691C8DB2FA
:104410002254A91E08190221FFF7A9FF8146284648
:10442000691C8DB204F80090701CC6B25645E3DBDF
:104430002846BDE8F0872DE9F04F91B083460E463F
:10444000914609EB49001FFA80FA01AD5246294610
:10445000584600F0FFF807461FB1384611B0BDE8D6
:10446000F08F0024A04618E0A11C6A5C28190221E4
:10447000FFF79AFF07460FB13846EFE72A5D40463F
:10448000411C1FFA81F83254601C2A5C4046411CD2
:104490001FFA81F83254E01C84B25445E4DB00205A
:1044A000DCE72DE9F04781460D4617463A46294696
:1044B0004846FFF7C0FF8046B8F1000F02D04046E3
:1044C000BDE8F087002409E005EB440670783178F8
:1044D00040EA012025F81400601CC4B2BC42F3DBA2
:1044E0000020EDE738B504460D4600231A4629465C
:1044F0006846FFF771FF02226946204600F082F805
:1045000038BD2DE9F04188B005460E4617461C46D9
:10451000E3B23A4631466846FFF75EFF80464246C0
:104520006946284600F06EF808B0BDE8F0812DE934
:10453000F8430746884614461D46DDF820900023C0
:104540001A4641466846FFF747FF02226946384649
:1045500000F058F8064616B13046BDE8F88314B1AD
:10456000204600F0C9FA4A4629463846FFF799FF27
:10457000F3E7F8B506460F4614461D4623460022CB
:10458000394630460095FFF7D2FFF8BD10B5504CC4
:1045900007E000F0ADFA08B1002010BD0A2000F0DD
:1045A000ABFA601E0400F4D1401EF6E770B5044675
:1045B000204600F039FA00F0F4F945B2284670BD03
:1045C00070B504460025204600F054FA05462846FA
:1045D00070BD10B500F084FAFFF7D8FF10B14FF0AE
:1045E000FF3010BD00F074FA052000F085FA00F0ED
:1045F0007BFA052000F080FA0020F2E710B500F009
:10460000BEF910BD2DE9F04106460F469046002444
:10461000FFF7DFFF044614B12046BDE8F0817106C4
:10462000080EFFF7C3FF04460CB12046F5E700254E
:1046300009E0785DFFF7BAFF044614B1FFF7DEFF2B
:1046400003E0681C85B24545F3DB00BFFFF7D6FFEA
:104650002046E2E72DE9F047074688461546FFF772
:10466000B8FF064616B13046BDE8F087012101EBE0
:104670004701C8B2FFF79AFF06461EB1FFF7BEFF1B
:104680003046F1E700240DE0681EA04201DD012064
:1046900000E0002081464846FFF792FF08F804003A
:1046A000601C84B2AC42EFDBFFF7A8FF0020DBE721
:1046B00010B500F007FA00F013FA00F005FA10BD8B
:1046C00010B500F00DFA00F0FFF900F0FCF910BD94
:1046D000F0490200F8B504460D460222694644201E
:1046E000FFF7DFFE0646BDF8000045F27351484370
:1046F0004AF6C871C1EB60302060BDF8020043F695
:104700000951484341F27071C1EB60302860304676
:10471000F8BD10B501222A494420FFF773FF10BDF0
:1047200070B505460E46FFF7F4FF04460CB120466F
:1047300070BD2449098801EB8101480000F0DCF9D3
:1047400031462846FFF7C6FFF2E77CB504468920CC
:104750000190012201A94420FFF754FF05460DB145
:1047600028467CBD41F2883000F0C6F90222694635
:104770004420FFF796FE0546BDF80200BDF8001084
:1047800040EA014020602846EBE708B56846FFF79D
:10479000DCFF08BD38B1E021094A117040F6C411B0
:1047A000084A118006E0FD21054A117042F210719D
:1047B000044A1180704704480068704744207047DD
:1047C000AA000020AC000020B000002070B500243A
:1047D000002500F051F8FFF76BFF03E04CF250307A
:1047E00000F08AF9FFF7D1FF20B12046611CCCB25E
:1047F0000328F3DB032C02DC03201B49087070BD87
:104800001CB5694601A8FFF78BFF44B2C4B9032069
:10481000154908706421019890FBF1F01349C88391
:104820006421009890FBF1F0104988830846808A43
:10483000401C88820E49019808820098888209E00D
:104840000A48C08A401C0949C8820A480078401CAE
:104850000849087007480078052804DD002005494C
:104860000870014908701CBDAE000020A83000206F
:1048700014020020AF00002008B501211020FDF730
:1048800027FE0C20ADF8000010208DF80300032057
:104890008DF8020069468948FDF73CF90C218748EC
:1048A000FDF7E5F908BD08B50420ADF80000482083
:1048B0008DF8030069468148FDF72CF904217F48F3
:1048C000FDF7D5F908BD08B50420ADF800001020AB
:1048D0008DF8030003208DF8020069467748FDF744
:1048E00019F908BD08B50820ADF8000048208DF87A
:1048F000030069467148FDF70DF908216F48FDF77F
:10490000B6F908BD08B50820ADF8000010208DF8F4
:10491000030003208DF8020069466848FDF7FAF8A5
:1049200008BD01206649086070470020644908609E
:10493000704701206249091D0860704700206049E6
:10494000091D086070475E4880380068C0B2704733
:104950005B487C380068C0B2704710B5FFF7B3FF02
:10496000FFF7DFFFFFF7E5FF042001F03FFAFFF755
:10497000DCFF042001F03AFAFFF7E0FF10BD10B5AC
:10498000FFF7A1FFFFF7DAFFFFF7CFFF042001F0E9
:104990002DFAFFF7CEFFFFF7C4FF042001F026FA3F
:1049A00010BD10B50024FFF7BCFFFFF77CFF01200E
:1049B00001F01CFAFFF7BDFF012001F017FA07E034
:1049C000601CC4B2FA2C03DDFFF7D9FF012010BD33
:1049D000FFF7B9FF0028F3D1FFF7B0FF0020F6E79B
:1049E00010B5FFF7ABFFFFF76EFFFFF79EFF02204A
:1049F00001F0FCF9FFF79DFF022001F0F7F9FFF746
:104A00009DFF10BD10B5FFF799FFFFF75CFFFFF7A3
:104A100088FF022001F0EAF9FFF78BFF022001F086
:104A2000E5F9FFF78BFF10BD70B50446FFF74BFFAC
:104A3000FFF784FF022001F0D9F9002517E0E00913
:104A400010B1FFF76EFF01E0FFF76FFF6006040E85
:104A5000022001F0CBF9FFF76CFF022001F0C6F94C
:104A6000FFF76CFF022001F0C1F9681CC5B2082DE8
:104A7000E5DB70BD70B505460024FFF714FF002686
:104A800012E0FFF75BFF022001F0B0F9FFF751FFE2
:104A90006006040EFFF757FF08B1601CC4B2012086
:104AA00001F0A4F9701CC6B2082EEADB15B9FFF7B5
:104AB000A9FF01E0FFF794FF204670BD0008014008
:104AC000880121427047704710B5FFF72AFF10BDDB
:104AD00010B5FFF72AFF10BD10B5FFF734FF10BD6A
:104AE00010B5FFF726FF10BD10B5FFF727FF10BD6B
:104AF00010B5FFF72DFF10BD70B504460A20B4FBBA
:104B0000F0F0451C284601F071F970BD08B501218F
:104B10000520FDF7DDFC01216948FDF7CCF84FF4D5
:104B2000F040ADF8000048208DF8030003208DF818
:104B3000020069466348FCF7EDFF08BD00206249AA
:104B40000880704770B5002460480088401C5F49A9
:104B500008805C48FDF77AF84FF4F04121EA00063E
:104B60000A2001F06EF9FDF72EFB5648FDF76EF8AE
:104B70004FF4F04121EA000506EA050000F4005078
:104B800030B15248808D401C5049888544F400540F
:104B900006EA050000F4805030B14C48C08D401C3E
:104BA0004A49C88544F4805406EA050000F4804070
:104BB00030B14648008E401C4449088644F4804485
:104BC00006EA050000F4006030B14048408E401C09
:104BD0003E49488644F40064E01270BD022105207D
:104BE00000F0BAFD3A490860FFF790FF00BFFFF7F9
:104BF000A9FF044637490988884215D03348808F79
:104C0000401C324988873348008838B90846C08F2D
:104C1000401CC88730490C70FFF752FA2D480480B9
:104C200000202E490870E2E75CB32848B0F8400045
:104C3000401C2649A1F84000284800781E2802DBC5
:104C400044F4807404E0254800780A2800DB00BFA3
:104C5000224800780A280ADB1C48B0F84200401CB1
:104C60001A49A1F842001C490C70FFF729FA1B48A9
:104C70000078C828BBDA19480078401C174908702A
:104C8000B5E71248B0F84400401C1049A1F84400B0
:104C9000002011490870FFF713FAA8E71FB5044672
:104CA000FFF74CFF00200E4ACDE9012003466422A5
:104CB0000CA100940390AFF2DB0000F07BF81FBD65
:104CC0000004300000080140B4000020A83000209B
:104CD000CC000020C6000020C8000020D00000202A
:104CE000C00000206B65795F7461736B0000000089
:104CF00010B5002407E004EB8401F94A02EB8100BF
:104D000000F0E0FC641C052CF5D3F64800F0DAFC5A
:104D1000F54800F0D7FCF54800F0D4FCF44800F06A
:104D2000D1FCF44800F0CEFCEE48F3490860EE48B0
:104D3000F249086010BD2DE9F04104460E461546C3
:104D40009846069F1022314604F1340002F0A4FC7C
:104D5000002143200155052D00D30425E562201DC7
:104D600000F0BDFC04F1180000F0B9FC2461C5F1AD
:104D70000500A0616462BDE8F08170B505460E468D
:104D8000442000F083FF044694B11EB9A80000F04F
:104D90007DFF00E030462063206B20B9204600F004
:104DA000D6FF002404E0A900A522206B02F062FCDB
:104DB000204670BD2DE9FF4F81B0804615469946CB
:104DC000DDE90E7A28461099FFF7D7FF0446002C3C
:104DD00056D0681E216B01EB800B2BF0070B009562
:104DE0003A462046119B0299FFF7A5FF4A464146E5
:104DF000584600F0F1FE2060BAF1000F01D0CAF869
:104E0000004000F019FFBE480068401CBC49086023
:104E1000BC48006840B9BB480460084600680128E7
:104E20000CD1FFF765FF09E0B748006830B9B54815
:104E30000068C06AB84201D8B2480460B349E06A69
:104E40000968884202D9B149E06A0860B048006840
:104E5000401CAF490860AF49E06A0968884202D93E
:104E6000AC49E06A0860E16A01EB81019C4A02EB0F
:104E70008100211D00F036FC012600F0E6FE01E075
:104E80004FF0FF36012E09D19F48006830B19D4890
:104E90000068C06AB84201D200F0C8FE304605B0D2
:104EA000BDE8F08F70B5044600F0C6FE9548006876
:104EB000844200D1002414B99248006800E02046E2
:104EC0000546281D00F036FCA86A18B105F1180047
:104ED00000F030FC291D864800F004FC8E48006874
:104EE000401C8D4908608A480068401C8849086059
:104EF00000F0ABFE8448006810B10CB900F096FEDB
:104F000070BD70B585480068002866D18448006887
:104F1000401C834908600846006808BB7649086859
:104F200076490968744A1160744908607D490968C6
:104F3000491C7C4A116070490968096809B9012156
:104F400000E0002121B14FF0FF31774A116006E007
:104F500069490968C968CC68734A6168116000BF13
:104F60006F48006870490968884235D300BF6248BD
:104F70000068006808B9012000E0002020B14FF06F
:104F8000FF306949086026E05B480068C068C46873
:104F9000656863480068A84202D2634805601AE069
:104FA000201D00F0C7FBA06A18B104F1180000F042
:104FB000C1FB5849E06A0968884202D95549E06A4C
:104FC0000860E16A01EB8101454A02EB8100211D85
:104FD00000F088FBCBE700BF04E054480068401CA9
:104FE0005249086070BD70B5002500F025FE4B48A1
:104FF0000068401E494908600846006800284CD1F6
:105000003F480068002848D0002621E03748C068A3
:10501000C46804F1180000F08DFB201D00F08AFB2D
:105020003C49E06A0968884202D93A49E06A086066
:10503000E16A01EB81012A4A02EB8100211D00F0A7
:1050400051FB3049E06A0968C96A884200D30126E9
:105050002648006808B9012000E000200028D5D0CB
:105060003248006860B106E0FFF74BFF2F48006848
:10507000401E2E4908602D4800680028F4D1012602
:10508000012E03D02A480068012805D101250020FF
:105090002749086000F0CAFD00BF00F0D6FD284691
:1050A00070BD10B504461748006844601C4800688D
:1050B000844207D213480168091D1048006800F0B7
:1050C0001FFB0CE00F480168091D0B48006800F049
:1050D00017FB15480068844201D21348046010BDD4
:1050E000DC03002040040020540400206804002059
:1050F0007C04002090040020D8000020DC00002068
:10510000E4000020D4000020F4000020EC00002087
:1051100008010020F0000020E0000020F80000203E
:10512000E8000020040100200C010020FC00002009
:1051300000010020F9480068401CF84908607047E9
:105140002DE9F04104460F464FF00008FFF7F2FF4B
:105150002068C519F24920680968884209D9206881
:10516000A8420FD9EE48006885420BD94FF00108DC
:1051700008E02068A84203D8E9480068854201D9C0
:105180004FF001082560B8F1000F07D0E54800682E
:10519000001D00F0CFFA2846FFF783FFFFF723FF3B
:1051A00006460EB900F042FDBDE8F08170B5044638
:1051B00000267CB1FFF7BEFFD94800680519D94821
:1051C0000068001D00F0B6FA2846FFF76AFFFFF7F7
:1051D0000AFF06460EB900F029FD70BD70B5044601
:1051E00000F02AFD14B9CF48006800E020460646CA
:1051F000F56A00F02AFD284670BD2DE9F04106460B
:105200000D464FF00008052D00D3042500F014FDD5
:10521000C4480068864200D1002616B9C14800681B
:1052200000E030460446E76AAF422DD0BD4203D9C4
:105230002EB14FF0010802E00EB94FF00108E5620F
:10524000C5F10500A06107EB8701B74A02EB8101B8
:105250006069884213D1201D00F06CFAB349E06AFE
:105260000968884202D9B149E06A0860E16A01EB45
:105270008101AD4A02EB8100211D00F033FAB8F143
:10528000010F01D100F0D2FC00F0DFFCBDE8F0819D
:10529000A248006818B10120A549086025E004E093
:1052A000A2480068401EA1490860A048006800EBC1
:1052B00080009D4951F820000028F1D09B490968E1
:1052C00001EB8101984A02EB810041684968416025
:1052D00000F1080142688A4202D141684968416090
:1052E0004168C9688F4A116000BF704770B50446B5
:1052F00000F0A2FC8B480068844200D1002414B95D
:105300008848006800E020460546281D00F012FA93
:10531000A86A18B105F1180000F00CFA291D85489B
:1053200000F0E0F900F091FC8CB98348006810B1FE
:1053300000F07CFC0BE07F480068804909688842E7
:1053400003D100207749086001E0FFF7A1FF70BD9D
:1053500010B5014600200A46764C5369A34201D19C
:10536000012300E0002383B1754C936AA34201D16D
:10537000012300E00023012B07D0936A0BB901231E
:1053800000E00023012B00D1012010BD70B50546BF
:105390002C4644B363480068844224D000F04CFC9F
:1053A0002046FFF7D5FF01281BD1201D00F0C2F9D0
:1053B0005E49E06A0968884202D95C49E06A08608F
:1053C000E16A01EB8101584A02EB8100211D00F0E6
:1053D00089F95449E06A0968C96A884201D300F032
:1053E00025FC00F032FC70BD70B5054600262C4649
:1053F0002046FFF7ADFF012826D148480068F0B9E4
:105400004849E06A0968C96A884201D3012000E07E
:1054100000200646201D00F08DF94449E06A096825
:10542000884202D94149E06A0860E16A01EB8101E2
:105430003D4A02EB8100211D00F054F904E004F123
:1054400018013F4800F04EF9304670BD10B50446D3
:10545000206B00F07CFC204600F079FC10BD70B59C
:105460003848006818B3FFF765FE3748006808B988
:10547000012000E000200546FFF7B5FDBDB900F0B2
:10548000DBFB3148C068C468201D00F053F92B488D
:105490000068401E294908602A480068401E2949C2
:1054A000086000F0D2FB2046FFF7D0FF00BF70BDC0
:1054B00000BFFFF7D4FF1C4800680128F9D900F0AD
:1054C000B5FBF6E71FB5002000900190029003465F
:1054D00080221EA103901F48FFF76CFC0446012C9C
:1054E00009D1FAF767FE01201349086000200C4932
:1054F000086000F085FB1FBD10B5FAF75BFE0020C9
:105500000D49086000F091FB10BD10B500F094FB50
:105510000348046800F099FB204610BDF800002005
:10552000E8000020D4000020DC030020F000002070
:105530000001002090040020F4000020E40000207E
:1055400068040020E00000207C04002049444C4511
:1055500000000000B154000870B50025FAF72AFEDB
:105560004D480468FAF72DFE204670BD4B48006890
:10557000704770B506460C464948016818313046F8
:1055800000F0BEF846480068001D00F0D3F8601C2B
:1055900030B943480168091D424800F0A3F805E00E
:1055A0003D48006805192846FFF77BFD70BD70B5C2
:1055B0000646F068C46804F1180000F0BBF83A48E9
:1055C0000068A0B9201D00F0B5F83849E06A096804
:1055D000884202D93549E06A0860E16A01EB81013D
:1055E000334A02EB8100211D00F07CF804E004F155
:1055F0001801304800F076F82949E06A0968C96A5C
:10560000884201D3012500E00025284670BD2A49C3
:1056100009680160204909684160704770B5044617
:105620000D4600F009FB2868401C08B900261FE061
:10563000214920680968884206D0174960680968CE
:10564000884201D8012613E0134960680968081AE6
:10565000296888420BD228680F4A61681268511A7B
:10566000401A28602046FFF7D2FF002600E00126FE
:1056700000F0EBFA304670BD012010490860704719
:105680000F49096809B9002005E00749096809B907
:10569000012000E002207047E8000020E400002024
:1056A000D400002090040020F8000020F00000202A
:1056B000DC03002068040020040100200001002019
:1056C000F400002000F1080141604FF0FF318160DB
:1056D00000F10801C16001610021016070470021F3
:1056E00001617047426853684B6043688B60536840
:1056F000996051604160086103685B1C03607047FA
:1057000010B502460B685C1C0CB9106907E002F189
:10571000080000E04068446824689C42FAD9446864
:105720004C604C68A160886041600A611468641C28
:10573000146010BDD0E901329A60D0E901235A60AB
:1057400001694A68824201D182684A60002202618E
:105750000A68521E0A6070472DE9F04105460E4660
:105760004FF000084DB34C2000F090FA044624B3EB
:1057700005FB06F0471C384600F088FA20602068D8
:10578000E0B1206805FB060060600020A06320688F
:10579000A060681E216800FB0610E060E5632664D7
:1057A0004FF0FF306064A06404F11000FFF78AFF3F
:1057B00004F12400FFF786FFA04602E0204600F037
:1057C000C6FA4046BDE8F08110B5044600F034FA50
:1057D00011E0606A08B9012000E0002050B904F12E
:1057E0002400FFF7E4FE08B1FFF746FFA06C401E5F
:1057F000A06400E002E0A06C0028EADC00BF4FF0EB
:10580000FF30A06400F021FA00F016FA11E02069E0
:1058100008B9012000E0002050B904F11000FFF7A2
:10582000C6FE08B1FFF728FF606C401E606400E010
:1058300002E0606C0028EADC00BF4FF0FF306064DB
:1058400000F003FA10BD70B5044600F0F5F9A06B46
:10585000E16B884201D1012000E00020054600F004
:10586000F4F9284670BD70B504460E461546206C06
:1058700008B37DB93146226CA06801F0E9FE216CC5
:10588000A0680844A060D4E90110884213D32068BE
:10589000A06010E03146226CE06801F0D9FE216C76
:1058A000E068401AE0602168E068884203D2216C19
:1058B0006068401AE060A06B401CA06370BDFFB53B
:1058C00083B004460E461D46002700BF00F0B4F921
:1058D000A06BE16B884217D22A4631462046FFF77B
:1058E000C2FF606A08B9012000E0002038B904F165
:1058F0002400FFF75CFE012801D100F097F900F0C9
:10590000A4F9012007B0F0BD059818B900F09DF981
:105910000020F7E71FB901A8FFF779FE012700F083
:1059200094F9FFF707FC00F087F9606C401C08B998
:1059300000206064A06C401C08B90020A06400F046
:1059400084F905A901A8FFF769FEC0B92046FFF751
:105950007AFF70B104F110000599FFF70AFE2046A6
:10596000FFF732FFFFF73FFB0028AFD100F05EF9F1
:10597000ACE72046FFF728FFFFF735FBA6E72046F8
:10598000FFF722FFFFF72FFB0020BBE72DE9F047D1
:105990000446884616461F464FF00009FAF70AFCEF
:1059A000A06BE16B88421AD23A4641462046FFF787
:1059B0005AFFA06C401C68B9606A08B9012000E079
:1059C000002050B904F12400FFF7F1FD28B10120B7
:1059D000306002E0A06C401CA064012500E00025BE
:1059E000FAF7EFFB2846BDE8F08770B5044600F0F3
:1059F00023F9A06B08B9012000E00020054600F063
:105A000024F9284670BD70B504460D46206870B173
:105A1000216CE0680844E0606168E068884201D376
:105A20002068E0602846226CE16801F011FE70BD3C
:105A30002DE9FF4182B004460F461D464FF0000895
:105A400000BF00F0F9F8A06B58B3E668394620466D
:105A5000FFF7D9FF8DB9A06B401EA063206908B97C
:105A6000012000E00020B0B904F11000FFF79FFD15
:105A7000012810D100F0DAF80DE0E660606A08B99C
:105A8000012000E0002030B904F12400FFF78FFD71
:105A900008B100F0CBF800F0D8F8012006B0BDE85E
:105AA000F081049818B900F0D0F80020F6E7B8F1BA
:105AB000000F04D16846FFF7AAFD4FF0010800F07F
:105AC000C4F8FFF737FB00F0B7F8606C401C08B96A
:105AD00000206064A06C401C08B90020A06400F0A5
