:020000040800F2
:10000000C8210020451F00084503000847030008D9
:100010004B0300084F0300085303000800000000D2
:10002000000000000000000000000000570300086E
:1000300059030008000000005B0300085D0300088E
:100040005F1F00085F1F00085F1F00085F1F000898
:100050005F1F00085F1F00085F1F00085F1F000888
:100060005F1F00085F1F00085F1F00085F1F000878
:100070005F1F00085F1F00085F1F00085F1F000868
:100080005F1F00085F1F00085F1F00085F1F000858
:100090005F1F00085F1F00085F1F00085F1F000848
:1000A0005F1F00085F1F00085F1F00085F1F000838
:1000B0005F1F0008292200085F1F00085F1F00085B
:1000C0005F1F00085F1F00085F1F00085F1F000818
:1000D0005F1F0008A92500085F1F00085F1F0008B8
:1000E0005F1F00085F1F00085F1F00085F1F0008F8
:1000F0005F1F00085F1F00085F1F00085F1F0008E8
:100100005F1F00085F1F00085F1F00085F1F0008D7
:100110005F1F00085F1F0008932200085F1F000890
:100120005F1F00085F1F00085F1F00085F1F0008B7
:1001300000F002F800F03CF80AA090E8000C8244BD
:100140008344AAF10107DA4501D100F031F8AFF29A
:10015000090EBAE80F0013F0010F18BFFB1A43F0A5
:1001600001031847D82E0000F82E0000103A24BFD3
:1001700078C878C1FAD8520724BF30C830C144BF0C
:1001800004680C607047000000230024002500264E
:10019000103A28BF78C1FBD8520728BF30C148BFEA
:1001A0000B6070471FB502F0D2FE1FBD10B510BD29
:1001B00002F0DAFE1146FFF7F5FF00F02FF802F02B
:1001C000F8FE03B4FFF7F2FF03BC02F0A9F8000049
:1001D00080F30888704700000B49D1F800C04A68D6
:1001E0005CF8043B1068184442F8040B8C4528BFA7
:1001F000A1F1DC0C8A4228BFA1F1DC02C1F800C0E9
:100200004A6020F000407047601B0020FE204449F7
:10021000C880642008721820487270470027B846CA
:10022000002400254FF4A06000F08CF9482002F073
:1002300003F94FF4964002F086F801F0A3FE41F670
:100240001F410A2001F0F9FFFFF7E0FF02F056FA24
:1002500000203449088062E03348007801285ED1EC
:100260000020314908702F480088401C2D49088023
:10027000032097FBF0F087B215B1681E85B215E038
:10028000B8F1000F04D04FF0000801F09EFE03E02B
:100290004FF0010801F093FE062094FBF0F100FB03
:1002A0001140224931F81050601CC4B22048007837
:1002B00001281AD102F063FA88B11E48C0781D499E
:1002C000897800EB012086B202F013FA02F020FADE
:1002D000304602F0E4FA304602F059FC01E002F048
:1002E0005AF900201249087000BF1348007800280E
:1002F00009DD11480078401E0F4908700846007853
:1003000008B902F048F90D48007840B9054800885E
:1003100041F28831884202DD094802F0E7FD9BE79F
:10032000540800203A00002000000020C82F0008D8
:100330003C0000205E0800203D0000203900002025
:1003400000800008704700BFFEE700BFFEE700BF67
:10035000FEE700BFFEE770477047704710B502F038
:10036000F9F810BD0CB50020019000906C480068B1
:1003700040F480306A49086000BF6948006800F4B2
:10038000003000900198401C0190009818B9019825
:10039000B0F5A06FF1D16248006800F4003010B1F0
:1003A0000120009001E0002000900098012843D136
:1003B0005C48006840F010005A4908600846006830
:1003C00020F0030008600846006840F00200086062
:1003D00053484068524948600846406848600846AB
:1003E000406840F4806048600846406820F47C1013
:1003F00048600846406840F4E810486008460068D5
:1004000040F08070086000BF4548006800F0007050
:100410000028F9D04248406820F003004049486075
:100420000846406840F00200486000BF3C48406811
:1004300000F00C000828F9D10CBD10B5FFF792FFB1
:1004400010BD10B53648006840F00100344908601E
:100450000846406834490840314948600846006809
:10046000324908402E4908600846006820F4802080
:1004700008600846406820F4FE0048604FF41F0002
:100480008860FFF7DAFF4FF000602949086010BD6F
:1004900010B5002100200022214B5B6803F00C0105
:1004A00021B1042906D0082928D107E0214B224C8C
:1004B000236027E01F4B204C236023E0184B5B6830
:1004C00003F47010164B5B6803F48032022303EBD5
:1004D000904022B9194B4343174C23600DE0104B59
:1004E0005B6803F4003323B1144B4343124C236085
:1004F00003E0104B4343104C236003E00D4B0E4CC4
:10050000236000BF00BF064B5B68C3F303130C4CB2
:10051000E15C094B1B68CB40074C236010BD000019
:1005200000100240002002400000FFF8FFFFF6FE2E
:1005300008ED00E000127A000400002000093D00F0
:100540000800002031490143314A1160704770B5FD
:10055000002100230F22C47804B32D4C246804F436
:10056000E064C4F5E064210AC1F10403CA404478A0
:1005700004FA03F18478144021430901254C0678DC
:10058000A155047804F01F050124AC4005786D11D5
:10059000AD0005F1E025C5F8004109E0047804F05C
:1005A0001F050124AC401C4D0678761145F8264005
:1005B00070BD1A4A0A400243154B1B1F1A60704750
:1005C00039B1134A121D12680243114B1B1D1A60E8
:1005D00006E00F4A121D126882430D4B1B1D1A6064
:1005E0007047042808D14FF0E021096941F0040167
:1005F0004FF0E022116107E04FF0E021096921F09E
:1006000004014FF0E0221161704700000000FA057C
:100610000CED00E000E400E080E100E080FFFF1F5F
:1006200010B50446CC48844208D10121042001F0D1
:100630003FFC0021042001F03BFC46E0C748844217
:1006400008D10121082001F033FC0021082001F02D
:100650002FFC3AE0C248844208D10121102001F069
:1006600027FC0021102001F023FC2EE0BD4884422D
:1006700008D10121202001F01BFC0021202001F0E5
:1006800017FC22E0B848844208D10121402001F043
:100690000FFC0021402001F00BFC16E0B34884421F
:1006A00008D10121802001F003FC0021802001F00D
:1006B000FFFB0AE0AE48844207D10121801501F01A
:1006C000F7FB0021A01501F0F3FB10BD10B50121CF
:1006D000084601F0EDFB0021012001F0E9FB10BD0F
:1006E0002DE9F041024600250026002000230024C9
:1006F000002791F803C00CF00F0591F803C00CF02F
:10070000100CBCF1000F03D091F802C04CEA0505B3
:1007100091F800C0BCF1000F31D0146800202BE02C
:100720004FF0010C0CFA00F3B1F800C00CEA03061C
:100730009E4220D183004FF00F0C0CFA03F7BC430C
:1007400005FA03FC4CEA040491F803C0BCF1280F3D
:1007500006D14FF0010C0CFA00FCC2F814C00AE0FC
:1007600091F803C0BCF1480F05D14FF0010C0CFA11
:1007700000FCC2F810C0401C0828D1D31460B1F8A6
:1007800000C0BCF1FF0F34DD546800202EE000F102
:10079000080C4FF0010808FA0CF3B1F800C00CEA9D
:1007A00003069E4221D183004FF00F0C0CFA03F791
:1007B000BC4305FA03FC4CEA040491F803C0BCF105
:1007C000280F05D100F1080C08FA0CF8C2F81480C3
:1007D00091F803C0BCF1480F07D100F1080C4FF0AD
:1007E000010808FA0CF8C2F81080401C0828CED383
:1007F0005460BDE8F0814FF6FF71018002218170E5
:100800000421C17070470246002093680B400BB171
:10081000012000E0002070470146886880B27047E0
:1008200002460020D3680B400BB1012000E00020FD
:1008300070470146C86880B27047016170474161E6
:1008400070470AB1016100E041617047C1607047C3
:100850004FF480320A4382618161826182698269D8
:10086000704702460020434B18684FF680731840CB
:1008700040EA021008433F4B186070473E49C86188
:100880007047F0B50A46002300240021002500F03F
:100890000046B6F1004F02D1364EF16901E0354E07
:1008A0007168C0F3034583B200F44016B6F5401FEB
:1008B00008D121F070612F4E766826F070662D4FBA
:1008C0007E6012E000F48016B6F5801F06D1032684
:1008D00006FA05F4A14341F0706106E0460D3601C9
:1008E00003FA06F6B14341F0706122B1460D3601BC
:1008F00003FA06F6314300F00046B6F1004F02D18C
:100900001C4EF16101E01B4E7160F0BD30B500225C
:100910008B071C0F0F2303FA04F2164B08338C10BD
:1009200053F824309343134C08348D1044F8253089
:1009300023468C1053F824308C07240F00FA04F45B
:1009400023430C4C08348D1044F8253030BD0A493F
:10095000DC3108607047000000080140000C0140D5
:10096000001001400014014000180140001C01402B
:1009700000200140000001400000204210B5044664
:10098000FE48844208D10121C01401F091FA0021EF
:10099000E01401F08DFAC4E0B4F1804F08D10121D8
:1009A000084601F092FA0021012001F08EFAB8E029
:1009B000F348844208D10121022001F086FA002187
:1009C000022001F082FAACE0EE48844208D1012115
:1009D000042001F07AFA0021042001F076FAA0E068
:1009E000E948844208D10121082001F06EFA002173
:1009F000082001F06AFA94E0E448844208D1012119
:100A0000102001F062FA0021102001F05EFA88E067
:100A1000DF48844208D10121202001F056FA00214C
:100A2000202001F052FA7CE0DA48844208D101210A
:100A3000401401F03DFA0021601401F039FA70E031
:100A4000D548844209D10121C80401F031FA0021BE
:100A50004FF4002001F02CFA63E0D048844209D121
:100A60000121080501F024FA00214FF4801001F063
:100A70001FFA56E0CA48844209D10121480501F015
:100A800017FA00214FF4001001F012FA49E0C548AE
:100A9000844208D10121402001F017FA00214020B2
:100AA00001F013FA3DE0C048844208D101218020C2
:100AB00001F00BFA0021802001F007FA31E0BB4879
:100AC000844208D10121801501F0FFF90021A01511
:100AD00001F0FBF925E0B648844209D10121080460
:100AE00001F0E6F900214FF4803001F0E1F918E05F
:100AF000B048844209D10121480401F0D9F900210C
:100B00004FF4003001F0D4F90BE0AB48844208D137
:100B10000121880401F0CCF900214FF4802001F07C
:100B2000C7F910BD00220288944B98420ED0994B11
:100B300098420BD0B0F1804F08D0914B984205D02D
:100B4000904B984202D0904B984204D14FF68F734D
:100B50001A404B881A438D4B984207D08C4B9842D1
:100B600004D04FF6FF431A40CB881A4302808B888B
:100B700083850B880385814B98420BD0854B984227
:100B800008D08B4B984205D08A4B984202D08A4BB2
:100B9000984201D10B7A038601238382704770B596
:100BA000002400220023058C4FF6FE763540058494
:100BB000028C8388048B4FF68F752C40B51E2C4019
:100BC0000D882C43751E2A400D892A434D882A43DF
:100BD0006A4DA8420BD06F4DA84208D0744DA84270
:100BE00005D0744DA84202D0734DA84213D14FF6E0
:100BF000F7752A404D892A434FF6FB752A408D88A8
:100C00002A434FF6FF652B404FF6FF552B408D8949
:100C10002B43CD892B4383800483CD888586028432
:100C200070BD70B5002400220023058C4FF6EF76CE
:100C300035400584028C8388048B48F6FF752C4070
:100C40004FF6FF452C400D884FF6FF7606EA052546
:100C50002C434FF6DF752A400D8906EA05152A4315
:100C60004D8806EA05152A43444DA84202D0494D55
:100C7000A8421DD14FF67F752A404D894FF6FF7669
:100C800006EA05152A434FF6BF752A408D8806EA05
:100C900005152A434FF6FF352B404FF2FF752B40C9
:100CA0008D8906EA85052B43CD8906EA85052B4308
:100CB00083800483CD880587028470BD70B50024CD
:100CC00000220023058C4FF6FF6635400584028C18
:100CD0008388848B4FF68F752C404FF6FC752C4023
:100CE0000D882C434FF6FF552A400D894FF6FF76AD
:100CF00006EA05252A434D8806EA05252A431F4DA5
:100D0000A84202D0234DA8421DD14FF2FF752A40C0
:100D10004D894FF6FF7606EA05252A434FF6FF3543
:100D20002A408D8806EA05252A434EF6FF752B409A
:100D30004DF6FF752B408D8906EA05152B43CD89AD
:100D400006EA05152B4383808483CD88858702843A
:100D500070BD70B5002200230024058C4EF6FF768E
:100D600035400584038C8488828B48F6FF752A40C1
:100D70004FF6FF452A400D8820E00000002C01407E
:100D80000004004000080040000C0040001000403B
:100D90000014004000340140004C0140005001406C
:100DA0000054014000180040001C0040002000409A
:100DB0000040014000440140004801404FF6FF76EA
:100DC00006EA05252A434DF6FF752B400D8906EAF4
:100DD00005352B434D8806EA05352B43FA4DA842CD
:100DE00002D0FA4DA84208D14BF6FF752C408D89F0
:100DF0004FF6FF7606EA85152C4384808283CD88E2
:100E0000A0F84050038470BD828B4FF2FF331A402C
:100E10008283828B4FF6FF7303EA01231A43828396
:100E20007047F0B50C461546002200210026078CBD
:100E30004EF6FF7C07EA0C070784828B018C4FF685
:100E4000FF7707EA043640F6FF473A404FF6FF7750
:100E500007EA05273A434FF6FF7707EA03373A4395
:100E6000D94FB8420ED0D94FB8420BD0B0F1804F15
:100E700008D0D74FB84205D0D64FB84202D0D64F8F
:100E8000B84206D14DF6FF77394046F480573943D2
:100E900005E047F6FF57394044F4805739438283D1
:100EA0000184F0BD828B4FF6F3731A408283828BEC
:100EB0000A4382837047F0B50C4615460022002194
:100EC0000026078C4FF6FF6C07EA0C070784828B1D
:100ED000018C4FF6FF7707EA04264FF60C773A406D
:100EE0004FF6FF7707EA03172F433A43B64FB8424E
:100EF0000ED0B64FB8420BD0B0F1804F08D0B44FEF
:100F0000B84205D0B34FB84202D0B34FB84206D171
:100F10004FF6FF57394046F48077394305E04FF2EA
:100F2000FF57394044F48077394382830184F0BD10
:100F3000028B4FF2FF331A400283028B4FF6FF738E
:100F400003EA01231A4302837047F0B50C461546A5
:100F5000002200210026078C4FF6EF7C07EA0C07E1
:100F60000784028B018C4FF6FF7707EA041640F6E0
:100F7000FF473A404FF6FF7707EA03373A434FF609
:100F8000FF7707EA05273A438F4FB8420ED08F4FBD
:100F9000B8420BD0B0F1804F08D08D4FB84205D089
:100FA0008C4FB84202D08C4FB84206D14FF6DF7753
:100FB000394046F01007394305E04FF65F77394076
:100FC00044F01007394302830184F0BD028B4FF6D1
:100FD000F3731A400283028B0A4302837047F0B511
:100FE0000C46154600220021068C4FF6FE773E4047
:100FF0000684028B018C4FF60C7632407E1C06EA8A
:1010000003162E433243704EB0420ED06F4EB042A4
:101010000BD0B0F1804F08D06D4EB04205D06D4E70
:10102000B04202D06C4EB04206D14FF6FD76314050
:1010300044F00106314305E04FF6F576314044F0C7
:101040000106314302830184F0BD70B505460C46AC
:101050005D4885420ED05D4885420BD0B5F1804F8A
:1010600008D05B48854205D05A48854202D05A488C
:10107000854200D100E000BF208850B92389A288B2
:1010800061882846FFF7ABFFE1882846FFF79EFFFF
:1010900025E0208804280AD12389A288618828466F
:1010A000FFF753FFE1882846FFF742FF17E020884B
:1010B00008280AD12389A28861882846FFF7FBFE09
:1010C000E1882846FFF7EEFE09E02389A2886188BF
:1010D0002846FFF7A6FEE1882846FFF795FE70BD7B
:1010E0002DE9F04105460C4600260127608808B925
:1010F000022600E00026A088012801D1022700E096
:1011000001272088A0B92389A28861882846FFF793
:1011100066FFE1882846FFF759FF23893A463146A2
:101120002846FFF712FFE1882846FFF701FF13E08A
:101130002389A28861882846FFF707FFE1882846AF
:10114000FFF7F6FE23893A4631462846FFF747FF68
:10115000E1882846FFF73AFFBDE8F0810A884B880E
:101160001A438B881A43CB881A430B891A434B893D
:101170001A438B891A43A0F8442070474FF6FF7139
:10118000818000210180C18041800172704700216F
:10119000018041808180C180018141818181C18143
:1011A0007047002101804180012181800021C180A0
:1011B000018170470021018041808180C1800181CF
:1011C0004181818170470000002C014000340140C2
:1011D0000004004000080040000C004021B10288DB
:1011E00042F00102028004E002884FF6FE731A40CA
:1011F0000280704731B1B0F8442042F40042A0F8B8
:10120000442005E0B0F84420C2F30E02A0F84420C8
:1012100070471AB183890B43838102E083898B4332
:10122000838170478182704741EA0203A0F8483009
:1012300070471AB183890B43838102E083898B4312
:101240008381704701894FF6F87211400181704720
:101250000A46002101894FF68F731940114301811D
:10126000704730B504460D4629462046FFF7F0FF8B
:10127000208940F00700208130BD2DE9F04104466F
:101280000D4616461F46602D06D13B4601223146CB
:101290002046FFF75AFE05E03B4601223146204634
:1012A000FFF79DFE29462046FFF7D2FF208940F038
:1012B00007002081BDE8F08130B50C46002101898E
:1012C000C9B24FF6FF7505EA0325154325432943A7
:1012D000018130BD2DE9F04105460E46174698467E
:1012E000002443463A4631462846FFF7E5FF2C895D
:1012F0004FF6F870044044F007044FF68F70044036
:1013000044F070042C81BDE8F081F0B504460D4630
:1013100016461F463B46324629462046FFF7CCFF7D
:10132000208940F480402081F0BD01858282704791
:101330000A46002101884FF68F731940114301803E
:101340007047F0B50C4615461E46002100220023CA
:101350000189028B038C4FF6F877394021434FF611
:10136000FC473A4040F201173A434FF6DD773B40E5
:101370004FF6FF7707EA06172F433B4301810283AD
:101380000384F0BD0A460021018B4FF68F7319408C
:101390001143018370470A460021018B48F6FF7311
:1013A00019404FF6FF7303EA022319430183704784
:1013B0000A460021818B4FF68F73194011438183B8
:1013C00070470A460021818B48F6FF7319404FF69B
:1013D000FF7303EA022319438183704721B1028816
:1013E00042F08002028004E002884FF67F731A40C8
:1013F0000280704721B1828842F00402828004E0BA
:1014000082884FF6FB731A408280704721B1828830
:1014100042F00802828004E082884FF6F7731A4097
:101420008280704721B1828842F00102828004E00C
:1014300082884FF6FE731A40828070470A46002168
:10144000018B4FF6F77319401143018370470A4629
:101450000021018B4FF2FF7319404FF6FF7303EA2F
:1014600002231943018370470A460021818B4FF6FE
:10147000F77319401143818370470A460021818B1D
:101480004FF2FF7319404FF6FF7303EA022319432B
:10149000818370470A460021018B4FF6FB73194088
:1014A0001143018370470A460021018B4FF6FF3339
:1014B00019404FF6FF7303EA022319430183704773
:1014C0000A460021818B4FF6FB731940114381833B
:1014D00070470A460021818B4FF6FF3319404FF6C3
:1014E000FF7303EA02231943818370470A460021F0
:1014F000018B4FF67F7319401143018370470A46F1
:101500000021018BC1F30E014FF6FF7303EA0223A2
:101510001943018370470A460021818B4FF67F7380
:1015200019401143818370470A460021818BC1F322
:101530000E014FF6FF7303EA0223194381837047BC
:101540000A460021018C4FF6FD73194011430184B6
:1015500070470A460021018C4FF6F773194011437A
:10156000018470470A460021018C4FF6DF73194051
:101570004FF6FF7303EA02131943018470470A46CA
:101580000021018C4FF67F7319404FF6FF7303EA79
:1015900002131943018470470A460021018C4FF65B
:1015A000FF5319404FF6FF7303EA022319430184E6
:1015B00070470A460021018C4FF2FF7319404FF625
:1015C000FF7303EA02231943018470470A4600218E
:1015D000018C4DF6FF7319404FF6FF7303EA023397
:1015E00019430184704730B5002301248C40A3B215
:1015F000048C9C430484048C02FA01F5ADB22C43A4
:10160000048430BD30B5002304248C40A3B2048C84
:101610009C430484048C02FA01F5ADB22C4304848B
:1016200030BD70B50346002000241846183001254F
:101630008D40ACB21D8CA5431D8409B1082909D188
:1016400000EB6100056825F070050560056815432D
:1016500005600EE00D1FC5F34E052844056825F40E
:10166000E045056005684FF6FF7606EA0226354339
:10167000056070BD21B1028842F00202028004E0E0
:1016800002884FF6FD731A400280704721B102882C
:1016900042F00402028004E002884FF6FB731A4015
:1016A0000280704721B1828842F08002828004E08B
:1016B00082884FF67F731A408280704702884FF607
:1016C000F7731A40028002880A43028070478288BA
:1016D0004FF68F731A40828082880A438280704757
:1016E00002894FF6F8731A40028102890A43028187
:1016F000704702894FF67F731A40028102890A43BC
:101700000281704781847047818570478186704768
:101710000187704781877047A0F8401070470288A2
:101720004FF6FF431A40028002880A430280704746
:101730000146888E70470146088F70470146888FA2
:1017400070470146B1F8400070470146888C7047E9
:101750000146088D704702460020138A0B400BB1EA
:10176000012000E000207047CA430282704730B574
:101770000246002000230024158A05EA010395890A
:1017800005EA010413B10CB1012000E0002030BDD6
:10179000CA4302827047000010B50446FB488442E9
:1017A00009D10121880300F083FB00214FF4804020
:1017B00000F07EFB32E0F648844209D10121480462
:1017C00000F083FB00214FF4003000F07EFB25E0A9
:1017D000F048844209D10121880400F076FB002101
:1017E0004FF4802000F071FB18E0EB48844209D1EF
:1017F0000121C80400F069FB00214FF4002000F033
:1018000064FB0BE0E548844208D10121080500F0A3
:101810005CFB00214FF4801000F057FB10BD2DE958
:10182000F04786B005460E460024A24600BFA146FA
:101830000027B08900B100BF2F462C8A4CF6FF70FC
:101840000440F08804432C82AC894EF6F310044027
:10185000B08831890843718908430443AC81AC8A5C
:101860004FF6FF400440B0890443AC8201A800F069
:1018700098FAC648874202D1DDF810A001E0DDF8F1
:101880000CA0A88900F4004040B10AEBCA0000EBAC
:101890000A1031684900B0FBF1F807E00AEBCA0012
:1018A00000EB0A1031688900B0FBF1F86420B8FB46
:1018B000F0F004012009642101FB1089A88900F4DB
:1018C000004040B1322000EBC900B0FBF1F000F065
:1018D0000700044308E0322000EB09106421B0FB4C
:1018E000F1F000F00F0004432C8106B0BDE8F08752
:1018F0004FF41651016000218180C18001810C21CB
:10190000418100218181704710B502460020108A74
:101910004FF2FF0318400B884C8823438C882343E5
:10192000CC8823431843108210BD002101804180E0
:101930008180C180704721B1828942F40052828146
:1019400004E082894DF6FF731A4082817047F0B53A
:101950000346002400260025002040F66A17B942FD
:1019600000D100BF1846C1F3421401F01F06012741
:1019700007FA06F5012C01D10C3004E0022C01D14C
:10198000103000E014301AB107682F43076002E0FE
:101990000768AF430760F0BD1AB1838A0B438382A7
:1019A00002E0838A8B4383827047028A4FF6F0738A
:1019B0001A400282028A0A430282704782894FF2E9
:1019C000FF731A40828182890A438281704721B164
:1019D000828942F00202828104E082894FF6FD731F
:1019E0001A4082817047028A4FF6DF731A400282E2
:1019F000028A0A430282704721B1028A42F480427D
:101A0000028204E0028A4BF6FF731A40028270479A
:101A1000C1F308028280704701468888C0F308003D
:101A20007047818941F0010181817047028BD2B2F8
:101A30000283028B42EA012202837047028B02F486
:101A40007F420283028B0A430283704721B1828A5C
:101A500042F02002828204E0828A4FF6DF731A404D
:101A60008282704721B1828A42F01002828204E0B1
:101A7000828A4FF6EF731A408282704721B1828AC0
:101A800042F00802828204E0828A4FF6F7731A401D
:101A90008282704721B1828942F40042828103E050
:101AA0008289C2F30E028281704721B1828A42F498
:101AB0000062828204E0828A4FF2FF731A408282BF
:101AC0007047828A4FF6FB731A408282828A0A43E9
:101AD0008282704721B1828A42F00202828204E04F
:101AE000828A4FF6FD731A408282704702460020B8
:101AF000B1F5007F00D100BF13880B400BB101206E
:101B000000E00020704701F40072B2F5007F00D1C0
:101B100000BFCA430280704770B50246002400230C
:101B20000025002040F66A16B14200D100BFC1F383
:101B3000421501F01F03012606FA03F3012D02D11D
:101B40009689334006E0022D02D1168A334001E027
:101B5000968A33400C12012606FA04F416883440A3
:101B600013B10CB1012000E0002070BD10B50022BF
:101B7000002340F66A14A14200D100BF0A120124DA
:101B80009440A3B2DC43048010BD00000038014043
:101B90000044004000480040004C0040005000401D
:101BA000DF48006840F00100DD49086008464068F1
:101BB000DC490840DA49486008460068DA490840CC
:101BC000D74908600846006820F48020086008466D
:101BD000406820F4FE0048604FF41F0088607047A2
:101BE000CF49096821F48031CD4A11601146096856
:101BF00021F480211160B0F5803F03D0B0F5802F33
:101C00000ED106E0C649096841F48031C44A11602A
:101C100007E0C349096841F4A021C14A116000E00E
:101C200000BF00BF704710B501460022002300200E
:101C30004A11012A02D1BA4C236806E0022A02D1D5
:101C4000B74C236A01E0B64C636A01F01F0201241D
:101C500094401C400CB1012000E0002010BD38B5BC
:101C6000002000900024002500BF3120FFF7DBFF9B
:101C700005460098401C00900098B0F5A06F01D078
:101C8000002DF2D03120FFF7CEFF08B1012400E093
:101C90000024204638BD01460020A14A106820F0EB
:101CA000F80040EAC10010607047A0490860704722
:101CB000024600209A4B586820F47C1042EA010347
:101CC0001843974B5860704798490866704701461B
:101CD0000020934A506820F003000843506070478A
:101CE0008F48406800F00C007047014600208C4A85
:101CF000506820F0F0000843506070470146002013
:101D0000874A506820F4E0600843506070470146FD
:101D10000020834A506820F4605040EAC1005060BF
:101D2000704729B17E4A527A02437D4B5A7204E0D1
:101D30007B4A527A82437A4B5A7270477B49D83138
:101D40000860704701460020754A506820F4404002
:101D50000843506070470021714A20321170704A68
:101D600082F82010012802D004280AD104E00121C1
:101D70006B4A2032117005E00521694A203211704A
:101D800000E000BF00BF70476949086070476449C0
:101D9000096A0143624A1162704765494439086023
:101DA000704730B500210022002400235C4D6D688F
:101DB00005F00C0121B1042905D0082923D105E043
:101DC0005C4D056022E05B4D05601FE0544D6D6881
:101DD00005F47012524D6D6805F48034022505EB50
:101DE00092421CB9544D554305600BE04C4D6D6853
:101DF00005F400351DB1504D5543056002E04D4DD1
:101E00005543056002E04B4D056000BF00BF444DE7
:101E10006D6805F0F0010909484D6B5C0568DD400F
:101E200045603F4D6D6805F4E061090A434D6B5C08
:101E30004568DD4085603A4D6D6805F46051C90A1A
:101E40003E4D6B5C4568DD40C560354D6D6805F401
:101E50004041890B3A4D6B5CC568B5FBF3F50561F4
:101E600030BD29B12E4A526902432D4B5A6104E01C
:101E70002B4A526982432A4B5A61704729B1284A3A
:101E800092690243264B9A6104E0254A9269824393
:101E9000234B9A61704729B1214AD2690243204BF2
:101EA000DA6104E01E4AD26982431D4BDA61704751
:101EB00029B11B4AD2680243194BDA6004E0184A80
:101EC000D2688243164BDA60704729B1144A12690E
:101ED0000243134B1A6104E0114A12698243104B0A
:101EE0001A61704712494039086070470F49C86449
:101EF00070470B49C87170470948406A40F08070CC
:101F000007494862704701460020054A92680A4026
:101F10000AB1012000E00020704701498872704733
:101F2000001002400000FFF8FFFFF6FE00004242F2
:101F30008004424200127A0000093D00180000208F
:101F4000280000200948804709480047FEE7FEE7CF
:101F5000FEE7FEE7FEE7FEE7FEE7FEE7FEE7FEE759
:101F600004480549054A064B704700004304000831
:101F700031010008C81B0020C8210020C81D002016
:101F8000C81D002008B501210420FFF777FF48F2A3
:101F90000400ADF8000010208DF8030003208DF838
:101FA000020069460C48FEF79BFB04210A48FEF735
:101FB00046FC4FF400410848FEF73FFC08BD10B551
:101FC00004210548FEF73BFC10BD10B50421024872
:101FD000FEF733FC10BD0000000801408C488D491D
:101FE00048608D48486070478A48006940F080002A
:101FF0008849086170478748C16801F0010008B14D
:102000000120704701F0040008B10220F9E701F057
:10201000100008B10320F4E70020F2E770B5044691
:1020200000BFFFF7E8FF0546012D00D006E00120C4
:1020300000F01EFA601E84B2002CF2D100BF2CB951
:1020400076484088401C75494880FF25284670BD69
:1020500070B50546002445F6FF70FFF7DFFF044624
:10206000C4B96C48006940F002006A49086108463A
:102070004561006940F04000086145F6FF70FFF7D8
:10208000CDFF0446012C05D06248006920F0020013
:1020900060490861204670BD70B505460E46FF20B8
:1020A000FFF7BCFF044694B95A48006940F00100AC
:1020B000584908612E80FF20FFF7B0FF0446012C2D
:1020C00005D05448006920F00100524908612046BB
:1020D00070BD0146088870472DE9F04105460E465F
:1020E0001746002407E036F814102846FFF7D4FFFF
:1020F000AD1C601C84B2BC42F5DBBDE8F08130B59C
:1021000003460C461546002207E01846FFF7E1FF9C
:1021100024F812009B1C501C82B2AA42F5DB30BD91
:102120002DE9F05F80468A461746B8F1006F02D36A
:102130003B48804501D3BDE8F09FFFF74FFFA8F172
:10214000006B4FEADB25CBF34909C9F58064A74250
:1021500000DC3C464EE04FF0006101EBC5204A1424
:102160003049FFF7CCFF00260BE009EB06002D49B4
:1021700031F810004FF6FF71884200D003E0701C68
:1021800086B2A642F1DB00BFA6421BDA4FF0006127
:1021900001EBC520FFF75CFF002608E03AF81600C7
:1021A00006EB09011F4A22F81100701C86B2A642F4
:1021B000F4DB4FF0006101EBC5204A141949FFF729
:1021C0008BFF04E0224651464046FFF785FFA742B9
:1021D00000D110E06D1C4FF000090AEB440A08EB37
:1021E0004408381B87B2B7F5806F02DD4FF4806476
:1021F00000E03C46AFE700BFFFF7F6FE00BF9AE7FE
:1022000013B50446012201A92046FFF789FF1CBD32
:102210002301674500200240AB89EFCD5C0A002016
:10222000000008085400002010B50120384908704B
:1022300001213848FFF798FA10BD7FB505460C46D6
:1022400001210220FFF727FEADF80850ADF8044049
:102250000020ADF80A00ADF8060001A92D48FEF7F0
:1022600061FC1D208DF8000000208DF801008DF824
:10227000020001208DF803006846FEF768F901228C
:1022800011462448FEF7C5FF01212248FEF7A6FFAC
:102290007FBD10B501212048FFF75DFA012804D168
:1022A0001E480068401C1D49086001211A48FFF7BC
:1022B0005BFA10BD7FB505460C4601211020FFF7E3
:1022C000EAFDADF80850ADF804400020ADF80A0072
:1022D000ADF8060001A91048FEF724FC36208DF861
:1022E000000001208DF8010003208DF8020001207C
:1022F0008DF803006846FEF72AF9012211460648C8
:10230000FEF787FF01210448FEF768FF7FBD00004C
:102310000000002000040040001000402C000020BD
:10232000014600BF704770B504460D4600BF40210E
:102330003F48FFF7DBFB0028F9D0A1B23C48FFF78C
:1023400067FB204670BD10B586B0044601218803A6
:10235000FFF794FD3648FFF71FFA36490868012158
:10236000FFF78CFD33480089ADF8140003208DF889
:10237000160018208DF817002E49486805A9FEF7A9
:10238000AFF92C49C8680121FFF778FD2948808AF8
:10239000ADF8140048208DF817002649086905A9F2
:1023A000FEF79EF925208DF8000001208DF8010030
:1023B00003208DF8020001208DF803006846FEF727
:1023C000C6F801940020ADF80800ADF80A00ADF899
:1023D0000C00ADF810000C20ADF80E0001A9144857
:1023E000FFF71DFA012240F225511148FFF7AFFA1D
:1023F00001210F48FFF79FFA0E4988690121FFF775
:102400003DFD0C48008CADF8140010208DF817002D
:1024100003208DF816000749C86905A9FEF760F981
:10242000044A118CD069FEF708FA06B010BD00000E
:1024300000380140D42F00084FF0E021096921F055
:1024400004014FF0E0221161C21700EB5272C2F397
:10245000C702234B1A701946097801EB4102C2EBFF
:10246000C1114FF6FF7202EAC1011E4A1180704786
:1024700001461B4A12784A434FF0E0235A6100227A
:102480009A6101221A6100BF4FF0E022106900F04A
:1024900001021AB100F48032002AF5D000224FF078
:1024A000E0231A619A61704701460E4A12884A4336
:1024B0004FF0E0235A6100229A6101221A6100BFA5
:1024C0004FF0E022106900F001021AB100F48032EE
:1024D000002AF5D000224FF0E0231A619A6170477C
:1024E000300000203200002030B51F4800684FF453
:1024F0007A72B0FBF2F1B1F1807F01D301201DE0CF
:1025000021F07F40401E4FF0E022506150170F2213
:10251000002807DA13071D0E144B00F00F04241FC8
:102520001D5503E013071C0E114B1C5400BF002067
:102530004FF0E022906107201061002008B100BF39
:10254000FEE74FF0E020006940F001004FF0E0218D
:10255000086130BD07480068401C064908607047A4
:1025600004490868704700000400002018ED00E0EE
:1025700000E400E03400002010B504462CB1FE4A0F
:10258000118CD069FEF759F904E0FB4A118CD0692F
:10259000FEF755F910BD10B50020F8490870F8494C
:1025A0000870FFF7E9FF10BD10B540F22551F5485E
:1025B000FFF7B2FA002870D0F248FFF72DFAC4B244
:1025C000EE480078FF2808DAEC4801780078401CD3
:1025D000EA4A1070EC48445402E00020E7490870D1
:1025E000E6480078072836D1E7484078032803D02A
:1025F000E5484078062805D10820E4490870E449F8
:10260000087075E0E048C078DF49897800EB012068
:102610000A280AD1DC484078062806D10C20DB497C
:1026200008700820DA49087062E0D748407810281E
:1026300009D1D54880790930D44908700846007816
:10264000D349087054E09620D049087008460078B5
:10265000CF4908704CE0C9480078CC4909788842D5
:102660000BD1C948407810280FD0C74840780328BC
:102670000BD0C5484078062807D0C0480078062807
:1026800036D1C1484078192832D10020C04908709D
:102690000120BB4908702BE0FFE740F22771B948E1
:1026A000FFF73AFA012823D1BA480078BA490988D5
:1026B00088420BDAB74802780078401CB54B187096
:1026C000B648815CAF48FFF7A3F911E000BF402195
:1026D000AC48FFF70BFA0128F9D1002240F227712C
:1026E000A848FFF734F90020AA490870FFF753FF04
:1026F00010BD10B50120FFF73FFF10BD10B5FF2042
:10270000A7490870FFF747FF0820A149087010BDCE
:102710004FF6FF70A34908807047A24909784140ED
:1027200001F00F01A04A32F811109E4A128881EA86
:1027300022119C4A11801146097881EA201101F08A
:102740000F01994A32F81110964A128881EA221133
:10275000944A1180704770B504460D464FF6FF70DD
:102760009049088003E02078FFF7D7FF641C280019
:10277000A5F10101CDB2F6D18A48008870BD2DE9DE
:10278000F04181484078102804D188480088401CD6
:10279000864908807C480078FF280BD07A4800786A
:1027A0008349C988884205D07748007810B1002055
:1027B000BDE8F08174484078192848D10421724856
:1027C000FFF7C9FF044670480179407901EB00200A
:1027D000A04201D00020EBE76B4880786A49C978B5
:1027E000884202DB6848C07801E067488078074685
:1027F000654880786449C978884202DB62488078FD
:1028000001E06148C07880466948C088B84203DB6F
:102810006748C088404501DD0020C9E76548008859
:1028200000F080FBFDF7D8FC282190FBF1F201FBC2
:102830001200001DC6B2002505E04FF4FA70FFF744
:1028400017FE681CC5B2B542F7DB0120B0E74E4861
:102850004078032809D04C484078062805D04A48DB
:102860004078102801D00020A2E748480078801E58
:10287000C1B24548FFF76FFF044644480078801E08
:102880004149095C41480078401E3F4A105C41EADA
:102890000020A04201D101208AE7002088E72DE92D
:1028A000F041044638484078062863D1062C10D100
:1028B0003B48007800F00100002809D13848007832
:1028C00040F00100364908702F4840793849C880E7
:1028D000E9E0102C0FD12C484079374908700846A0
:1028E00000788E2803D0084600788F28F0D1002089
:1028F0002B490870D7E09CB92948007800F0020005
:102900000028E5D12648007840F0020024490870EC
:102910001D480079264948701B4840790870C2E07C
:10292000022C13D11E48007800F004000028CFD1FB
:102930001B48007840F004001949087012480079DB
:102940001B49C870104840798870ACE0042C39D11C
:102950001348007800F00800002832D110480078B1
:1029600040F008000E49087007480179104841718D
:10297000054823E057E00000D42F00084200002063
:102980003C000020003801405E0800203E0000208E
:102990003D00002047000020400000205D0900208D
:1029A00046000020440000201C3000085C0A002083
:1029B000540800203A000020390000204079FE49E8
:1029C000087170E0072C10D1FC48007800F010006E
:1029D000002868D1F948007840F01000F7490870E5
:1029E000F7484079F44908725DE0082C10D1F348AB
:1029F000007800F02000002855D1F048007840F021
:102A00002000EE490870EE484079EB4948724AE0F0
:102A10000C2C48D1EA484079042844DAE848407947
:102A2000E84908703FE0E648407810283AD1E44889
:102A300046798779BE4236D1E348008880B9E148BB
:102A4000007820B9B4F5004F01DABDE8F081DD4827
:102A500000784FF0006101EB00402044DB49086042
:102A600000250DE0E81DD649085CD949D64A1288F0
:102A70008854D5480088401CD3490880681CC5B2DA
:102A8000B542EFDBD0480088B0F5006F0BD1CE48DF
:102A90000288CF49CD48006800F0EAF90020CA4911
:102AA000088000E000BFCB4800787F2803D17E205B
:102AB000C849087043E0C74800783F2818D1FFF79D
:102AC0008DFA102507E04FF0006101EBC520FFF7FC
:102AD000BFFA681CC5B27F2DF5DBFFF785FA002031
:102AE000B9490880B74908703E20BA49087026E005
:102AF000B8480078332803D13420B64908701EE066
:102B0000B44800781F2803D11E20B249087016E08F
:102B1000B0480078012812D1AB48008848B1AA48D3
:102B20000288AB49A948006800F0A2F90020A64934
:102B300008800020A7490870A74800F0D7F900BF17
:102B400083E770B504460D46A448A5490988445456
:102B5000A3480088FF2804DAA1480088401CA04947
:102B60000880012D02D12046FFF7D7FD70BD10B5BA
:102B700004461CB900209A49088007E0012C05D1C1
:102B8000012240F227719748FEF7E1FE10BD70B5B3
:102B900005460020FFF7EBFF8948407806280DD155
:102BA000002406E08649085D0021FFF7CAFF601C8B
:102BB000C4B28D4800788442F4DB39E18048407823
:102BC000032871D17E484679014608780121FFF734
:102BD000B8FF7B4948780121FFF7B3FF7106080E63
:102BE0000121FFF7AEFF0024A7E0601900280DDBEC
:102BF000601903280ADC01210020FFF7A2FF6119F8
:102C00006D4A505C0121FFF79CFF94E06019042895
:102C100009D101210020FFF794FF674908790121BC
:102C2000FFF78FFF87E06019052809D101210020F7
:102C3000FFF787FF604948790121FFF782FF7AE0BB
:102C40006019062809D101210020FFF77AFF5A49AF
:102C500088790121FFF775FF6DE06019072809D118
:102C600001210020FFF76DFF5349087A0121FFF78A
:102C700068FF60E06019082809D101210020FFF7F2
:102C800060FF4D49487A0121FFF75BFF53E060196F
:102C900010280AD101210020FFF753FF01214D48E0
:102CA0000078FFF74EFF46E056E060190B2808D188
:102CB00001210020FFF745FF01212820FFF741FFF8
:102CC00039E060190C2809D101210020FFF739FFF4
:102CD00001213C480078FFF734FF2CE060191128EF
:102CE00009D101210020FFF72CFF01213348007892
:102CF000FFF727FF1FE06019142814DB601928284C
:102D000011DA61191439394A32F811100812012107
:102D1000FFF717FF61191439344A12F81100012125
:102D2000FFF70FFF07E001210020FFF70AFF012155
:102D30000020FFF706FF601CC4B2B442FFF655AF97
:102D40002B4908780021FFF7FCFE29490988081261
:102D50000021FFF7F6FE6BE019484078102816D1E5
:102D6000002406E01649085D0121FFF7EAFE601C19
:102D7000C4B2062CF6DB1E4908780021FFF7E1FEFD
:102D80001B49098808120021FFF7DBFE50E00C48C0
:102D9000407819284CD10A4908780121FFF7D1FE63
:102DA000074948780121FFF7CCFE054988780121C1
:102DB000FFF7C7FE00491DE0540800204600002030
:102DC0005E080020380000204C0000204800002051
:102DD000840A002039000020008000085D090020DE
:102DE00040000020003801403E0000205C0A002026
:102DF0004400002008780121FFF7A3FE1849487815
:102E00000121FFF79EFE164988780121FFF799FE00
:102E10001349C8780121FFF794FE12490878002170
:102E2000FFF78FFE0F49098808120021FFF789FE7E
:102E30000120FFF79CFE70BD012080F3138800BFC6
:102E400000BF0948006800F4E06008490843001D1D
:102E500005490860BFF3408F00BF00BFFEE70000D8
:102E600054080020440000200CED00E00000FA05AA
:102E70002DE9F05F04468946924600252746C8465C
:102E8000B4F1006F02D32248844201D3BDE8F09F21
:102E9000FFF7A4F800261DE098F801004FEA002B88
:102EA00098F8000058441FFA80FB08F102082846F1
:102EB000691C8DB2174921F810B0B5F5806F07D1A4
:102EC00000254FF480623846FFF706F907F50067E2
:102ED000B01C86B25645DFD325B12A460D49384687
:102EE000FFF7FAF8FFF780F800BFCFE710B5044608
:102EF000206809490840B0F1005F08D160680749BF
:102F000008602068FDF764F904480068804710BD38
:102F100000000808841200200000FE2F500000204E
:102F2000704700000B4910B5A1F17C020A4CC2E9C0
:102F30003712372106E000EB104342F82130074BEF
:102F400000FB03400B1EA1F10101F4DC10BD0120C8
:102F5000E8E70000001B0020E119D666CD0D010056
:102F60007047704770477047754600F029F8AE46C5
:102F700005006946534620F00700854618B020B585
:102F8000FEF7EEFFBDE820404FF000064FF00007CF
:102F90004FF000084FF0000B21F00701AC46ACE801
:102FA000C009ACE8C009ACE8C009ACE8C0098D466E
:102FB00070470446AFF300802046FDF702F9000099
:102FC00000487047681B00206400640064006400CF
:102FD0002C012C0104000000000801400002000048
:102FE000040000000008014000040000040000008C
:102FF000000801400001000004000000000801403A
:103000000800000004000000000801400400000067
:10301000000000000000000000000000000001CCE3
:1030200001D8001401F0003C002801E401A0006C6C
:10303000007801B40050019C018800445C30000815
:1030400000000020540000006C010008B0300008AF
:1030500054000020742100008801000800000000D6
:1030600000A24A0400000000000000000102030466
:10307000060708090000000001020304010203041E
:10308000060708090204060800000000000000000E
:10309000010000000000000000000000000000002F
:1030A0000000FF0000000000000000000000000021
:0400000508000131BD
:00000001FF
